{
  "_format": "hh-sol-artifact-1",
  "contractName": "SimpleCompliance",
  "sourceName": "contracts/SimpleCompliance.sol",
  "abi": [
    {
      "anonymous": false,
      "inputs": [
        {
          "indexed": false,
          "internalType": "uint8",
          "name": "version",
          "type": "uint8"
        }
      ],
      "name": "Initialized",
      "type": "event"
    },
    {
      "anonymous": false,
      "inputs": [
        {
          "indexed": true,
          "internalType": "address",
          "name": "investor",
          "type": "address"
        },
        {
          "indexed": false,
          "internalType": "bool",
          "name": "status",
          "type": "bool"
        }
      ],
      "name": "KYCStatusUpdated",
      "type": "event"
    },
    {
      "anonymous": false,
      "inputs": [
        {
          "indexed": true,
          "internalType": "address",
          "name": "_module",
          "type": "address"
        }
      ],
      "name": "ModuleAdded",
      "type": "event"
    },
    {
      "anonymous": false,
      "inputs": [
        {
          "indexed": true,
          "internalType": "address",
          "name": "target",
          "type": "address"
        },
        {
          "indexed": false,
          "internalType": "bytes4",
          "name": "selector",
          "type": "bytes4"
        }
      ],
      "name": "ModuleInteraction",
      "type": "event"
    },
    {
      "anonymous": false,
      "inputs": [
        {
          "indexed": true,
          "internalType": "address",
          "name": "_module",
          "type": "address"
        }
      ],
      "name": "ModuleRemoved",
      "type": "event"
    },
    {
      "anonymous": false,
      "inputs": [
        {
          "indexed": true,
          "internalType": "address",
          "name": "previousOwner",
          "type": "address"
        },
        {
          "indexed": true,
          "internalType": "address",
          "name": "newOwner",
          "type": "address"
        }
      ],
      "name": "OwnershipTransferred",
      "type": "event"
    },
    {
      "anonymous": false,
      "inputs": [
        {
          "indexed": false,
          "internalType": "address",
          "name": "_token",
          "type": "address"
        }
      ],
      "name": "TokenBound",
      "type": "event"
    },
    {
      "anonymous": false,
      "inputs": [
        {
          "indexed": false,
          "internalType": "address",
          "name": "_token",
          "type": "address"
        }
      ],
      "name": "TokenUnbound",
      "type": "event"
    },
    {
      "inputs": [
        {
          "internalType": "address",
          "name": "_module",
          "type": "address"
        }
      ],
      "name": "addModule",
      "outputs": [],
      "stateMutability": "nonpayable",
      "type": "function"
    },
    {
      "inputs": [
        {
          "internalType": "address",
          "name": "_token",
          "type": "address"
        }
      ],
      "name": "bindToken",
      "outputs": [],
      "stateMutability": "nonpayable",
      "type": "function"
    },
    {
      "inputs": [
        {
          "internalType": "bytes",
          "name": "callData",
          "type": "bytes"
        },
        {
          "internalType": "address",
          "name": "_module",
          "type": "address"
        }
      ],
      "name": "callModuleFunction",
      "outputs": [],
      "stateMutability": "nonpayable",
      "type": "function"
    },
    {
      "inputs": [
        {
          "internalType": "address",
          "name": "_from",
          "type": "address"
        },
        {
          "internalType": "address",
          "name": "_to",
          "type": "address"
        },
        {
          "internalType": "uint256",
          "name": "_value",
          "type": "uint256"
        }
      ],
      "name": "canTransfer",
      "outputs": [
        {
          "internalType": "bool",
          "name": "",
          "type": "bool"
        }
      ],
      "stateMutability": "view",
      "type": "function"
    },
    {
      "inputs": [
        {
          "internalType": "address",
          "name": "_to",
          "type": "address"
        },
        {
          "internalType": "uint256",
          "name": "_value",
          "type": "uint256"
        }
      ],
      "name": "created",
      "outputs": [],
      "stateMutability": "nonpayable",
      "type": "function"
    },
    {
      "inputs": [
        {
          "internalType": "address",
          "name": "_from",
          "type": "address"
        },
        {
          "internalType": "uint256",
          "name": "_value",
          "type": "uint256"
        }
      ],
      "name": "destroyed",
      "outputs": [],
      "stateMutability": "nonpayable",
      "type": "function"
    },
    {
      "inputs": [],
      "name": "getModules",
      "outputs": [
        {
          "internalType": "address[]",
          "name": "",
          "type": "address[]"
        }
      ],
      "stateMutability": "view",
      "type": "function"
    },
    {
      "inputs": [],
      "name": "getTokenBound",
      "outputs": [
        {
          "internalType": "address",
          "name": "",
          "type": "address"
        }
      ],
      "stateMutability": "view",
      "type": "function"
    },
    {
      "inputs": [],
      "name": "init",
      "outputs": [],
      "stateMutability": "nonpayable",
      "type": "function"
    },
    {
      "inputs": [
        {
          "internalType": "address",
          "name": "investor",
          "type": "address"
        }
      ],
      "name": "isKYCVerified",
      "outputs": [
        {
          "internalType": "bool",
          "name": "",
          "type": "bool"
        }
      ],
      "stateMutability": "view",
      "type": "function"
    },
    {
      "inputs": [
        {
          "internalType": "address",
          "name": "_module",
          "type": "address"
        }
      ],
      "name": "isModuleBound",
      "outputs": [
        {
          "internalType": "bool",
          "name": "",
          "type": "bool"
        }
      ],
      "stateMutability": "view",
      "type": "function"
    },
    {
      "inputs": [
        {
          "internalType": "address",
          "name": "",
          "type": "address"
        }
      ],
      "name": "kycVerified",
      "outputs": [
        {
          "internalType": "bool",
          "name": "",
          "type": "bool"
        }
      ],
      "stateMutability": "view",
      "type": "function"
    },
    {
      "inputs": [],
      "name": "owner",
      "outputs": [
        {
          "internalType": "address",
          "name": "",
          "type": "address"
        }
      ],
      "stateMutability": "view",
      "type": "function"
    },
    {
      "inputs": [
        {
          "internalType": "address",
          "name": "_module",
          "type": "address"
        }
      ],
      "name": "removeModule",
      "outputs": [],
      "stateMutability": "nonpayable",
      "type": "function"
    },
    {
      "inputs": [],
      "name": "renounceOwnership",
      "outputs": [],
      "stateMutability": "nonpayable",
      "type": "function"
    },
    {
      "inputs": [
        {
          "internalType": "address",
          "name": "newOwner",
          "type": "address"
        }
      ],
      "name": "transferOwnership",
      "outputs": [],
      "stateMutability": "nonpayable",
      "type": "function"
    },
    {
      "inputs": [
        {
          "internalType": "address",
          "name": "_from",
          "type": "address"
        },
        {
          "internalType": "address",
          "name": "_to",
          "type": "address"
        },
        {
          "internalType": "uint256",
          "name": "_value",
          "type": "uint256"
        }
      ],
      "name": "transferred",
      "outputs": [],
      "stateMutability": "nonpayable",
      "type": "function"
    },
    {
      "inputs": [
        {
          "internalType": "address",
          "name": "_token",
          "type": "address"
        }
      ],
      "name": "unbindToken",
      "outputs": [],
      "stateMutability": "nonpayable",
      "type": "function"
    },
    {
      "inputs": [
        {
          "internalType": "address",
          "name": "investor",
          "type": "address"
        },
        {
          "internalType": "bool",
          "name": "status",
          "type": "bool"
        }
      ],
      "name": "updateKYC",
      "outputs": [],
      "stateMutability": "nonpayable",
      "type": "function"
    }
  ],
  "bytecode": "0x608060405234801561001057600080fd5b5061171d806100206000396000f3fe608060405234801561001057600080fd5b50600436106101215760003560e01c80638d2ea772116100ad578063b2494df311610071578063b2494df31461028e578063e1c7392a146102a3578063e46638e6146102ab578063efb22d33146102be578063f2fde38b146102d157600080fd5b80638d2ea772146102085780638da5cb5b1461021b578063a06324611461022c578063a446d49f1461023f578063a5410a661461026b57600080fd5b806354b7636e116100f457806354b7636e146101745780635f8dead3146101b55780636a3edf28146101c8578063715018a6146101ed5780638baf29b4146101f557600080fd5b80631ed86f1914610126578063300b53c21461013b5780633ff5aa021461014e57806340db3b5014610161575b600080fd5b6101396101343660046113dc565b6102e4565b005b610139610149366004611405565b6105f3565b61013961015c3660046113dc565b61065a565b61013961016f3660046113dc565b610765565b6101a06101823660046113dc565b6001600160a01b031660009081526099602052604090205460ff1690565b60405190151581526020015b60405180910390f35b6101396101c336600461143c565b6108ad565b6065546001600160a01b03165b6040516001600160a01b0390911681526020016101ac565b6101396109f6565b610139610203366004611466565b610a0a565b61013961021636600461143c565b610b7e565b6033546001600160a01b03166101d5565b61013961023a3660046113dc565b610cc1565b6101a061024d3660046113dc565b6001600160a01b031660009081526067602052604090205460ff1690565b6101a06102793660046113dc565b60996020526000908152604090205460ff1681565b610296610ef9565b6040516101ac91906114a2565b610139610f5b565b6101a06102b9366004611466565b611068565b6101396102cc3660046114ef565b611145565b6101396102df3660046113dc565b61122b565b6102ec6112a1565b6001600160a01b03811661031b5760405162461bcd60e51b815260040161031290611570565b60405180910390fd5b6001600160a01b03811660009081526067602052604090205460ff161561037b5760405162461bcd60e51b81526020600482015260146024820152731b5bd91d5b1948185b1c9958591e48189bdd5b9960621b6044820152606401610312565b606654601810156103ce5760405162461bcd60e51b815260206004820152601f60248201527f63616e6e6f7420616464206d6f7265207468616e203235206d6f64756c6573006044820152606401610312565b6000819050806001600160a01b031663e6f5e8076040518163ffffffff1660e01b8152600401602060405180830381865afa158015610411573d6000803e3d6000fd5b505050506040513d601f19601f8201168201806040525081019061043591906115a7565b61050a5760405163bcc2105360e01b81523060048201526001600160a01b0382169063bcc2105390602401602060405180830381865afa15801561047d573d6000803e3d6000fd5b505050506040513d601f19601f820116820180604052508101906104a191906115a7565b61050a5760405162461bcd60e51b815260206004820152603460248201527f636f6d706c69616e6365206973206e6f74207375697461626c6520666f722062604482015273696e64696e6720746f20746865206d6f64756c6560601b6064820152608401610312565b6040516312a4c95160e21b81523060048201526001600160a01b03821690634a93254490602401600060405180830381600087803b15801561054b57600080fd5b505af115801561055f573d6000803e3d6000fd5b50506066805460018082019092557f46501879b8ca8525e8c2fd519e2fbfcfa2ebea26501294aa02cbfcfb12e943540180546001600160a01b0319166001600160a01b038716908117909155600081815260676020526040808220805460ff191690941790935591519093507fead6a006345da1073a106d5f32372d2d2204f46cb0b4bca8f5ebafcbbed12b8a9250a25050565b6105fb6112a1565b6001600160a01b038216600081815260996020908152604091829020805460ff191685151590811790915591519182527f2df1cad2a2659e001c3804c872f69655356013e35c18c2e77a5d568078ab788f910160405180910390a25050565b3361066d6033546001600160a01b031690565b6001600160a01b0316148061069e57506065546001600160a01b031615801561069e5750336001600160a01b038216145b6106ea5760405162461bcd60e51b815260206004820152601c60248201527f6f6e6c79206f776e6572206f7220746f6b656e2063616e2063616c6c000000006044820152606401610312565b6001600160a01b0381166107105760405162461bcd60e51b815260040161031290611570565b606580546001600160a01b0319166001600160a01b0383169081179091556040519081527f2de35142b19ed5a07796cf30791959c592018f70b1d2d7c460eef8ffe713692b906020015b60405180910390a150565b336107786033546001600160a01b031690565b6001600160a01b031614806107955750336001600160a01b038216145b6107e15760405162461bcd60e51b815260206004820152601c60248201527f6f6e6c79206f776e6572206f7220746f6b656e2063616e2063616c6c000000006044820152606401610312565b6065546001600160a01b0382811691161461083e5760405162461bcd60e51b815260206004820152601760248201527f5468697320746f6b656e206973206e6f7420626f756e640000000000000000006044820152606401610312565b6001600160a01b0381166108645760405162461bcd60e51b815260040161031290611570565b606580546001600160a01b03191690556040516001600160a01b03821681527f28a4ca7134a3b3f9aff286e79ad3daadb4a06d1b43d037a3a98bdc074edd9b7a9060200161075a565b6065546001600160a01b031633146108d75760405162461bcd60e51b8152600401610312906115c4565b6001600160a01b0382166108fd5760405162461bcd60e51b815260040161031290611570565b6000811161094d5760405162461bcd60e51b815260206004820181905260248201527f696e76616c696420617267756d656e74202d206e6f2076616c7565206d696e746044820152606401610312565b60665460005b818110156109f0576066818154811061096e5761096e61162e565b60009182526020909120015460405163f104a8c960e01b81526001600160a01b038681166004830152602482018690529091169063f104a8c990604401600060405180830381600087803b1580156109c557600080fd5b505af11580156109d9573d6000803e3d6000fd5b5050505080806109e89061165a565b915050610953565b50505050565b6109fe6112a1565b610a0860006112fb565b565b6065546001600160a01b03163314610a345760405162461bcd60e51b8152600401610312906115c4565b6001600160a01b03831615801590610a5457506001600160a01b03821615155b610a705760405162461bcd60e51b815260040161031290611570565b60008111610acc5760405162461bcd60e51b8152602060048201526024808201527f696e76616c696420617267756d656e74202d206e6f2076616c7565207472616e60448201526339b332b960e11b6064820152608401610312565b60665460005b81811015610b775760668181548110610aed57610aed61162e565b600091825260209091200154604051630b2df87b60e21b81526001600160a01b03878116600483015286811660248301526044820186905290911690632cb7e1ec90606401600060405180830381600087803b158015610b4c57600080fd5b505af1158015610b60573d6000803e3d6000fd5b505050508080610b6f9061165a565b915050610ad2565b5050505050565b6065546001600160a01b03163314610ba85760405162461bcd60e51b8152600401610312906115c4565b6001600160a01b038216610bce5760405162461bcd60e51b815260040161031290611570565b60008111610c1e5760405162461bcd60e51b815260206004820181905260248201527f696e76616c696420617267756d656e74202d206e6f2076616c7565206275726e6044820152606401610312565b60665460005b818110156109f05760668181548110610c3f57610c3f61162e565b600091825260209091200154604051631b9248d160e11b81526001600160a01b038681166004830152602482018690529091169063372491a290604401600060405180830381600087803b158015610c9657600080fd5b505af1158015610caa573d6000803e3d6000fd5b505050508080610cb99061165a565b915050610c24565b610cc96112a1565b6001600160a01b038116610cef5760405162461bcd60e51b815260040161031290611570565b6001600160a01b03811660009081526067602052604090205460ff16610d4a5760405162461bcd60e51b815260206004820152601060248201526f1b5bd91d5b19481b9bdd08189bdd5b9960821b6044820152606401610312565b60665460005b81811015610ef457826001600160a01b031660668281548110610d7557610d7561162e565b6000918252602090912001546001600160a01b031603610ee257604051630694a5fb60e01b81523060048201526001600160a01b03841690630694a5fb90602401600060405180830381600087803b158015610dd057600080fd5b505af1158015610de4573d6000803e3d6000fd5b505050506066600183610df79190611673565b81548110610e0757610e0761162e565b600091825260209091200154606680546001600160a01b039092169183908110610e3357610e3361162e565b9060005260206000200160006101000a8154816001600160a01b0302191690836001600160a01b031602179055506066805480610e7257610e72611686565b60008281526020808220830160001990810180546001600160a01b03191690559092019092556001600160a01b03851680835260679091526040808320805460ff191690555190917f0a1ee69f55c33d8467c69ca59ce2007a737a88603d75392972520bf67cb513b891a2505050565b80610eec8161165a565b915050610d50565b505050565b60606066805480602002602001604051908101604052809291908181526020018280548015610f5157602002820191906000526020600020905b81546001600160a01b03168152600190910190602001808311610f33575b5050505050905090565b600054610100900460ff1615808015610f7b5750600054600160ff909116105b80610f955750303b158015610f95575060005460ff166001145b610ff85760405162461bcd60e51b815260206004820152602e60248201527f496e697469616c697a61626c653a20636f6e747261637420697320616c72656160448201526d191e481a5b9a5d1a585b1a5e995960921b6064820152608401610312565b6000805460ff19166001179055801561101b576000805461ff0019166101001790555b61102361134d565b8015611065576000805461ff0019169055604051600181527f7f26b83ff96e1f2b6a682f133852f6798a09c465da95921460cefb38474024989060200161075a565b50565b606654600090815b81811015611137576066818154811061108b5761108b61162e565b600091825260209091200154604051624edf3960e21b81526001600160a01b0388811660048301528781166024830152604482018790523060648301529091169063013b7ce490608401602060405180830381865afa1580156110f2573d6000803e3d6000fd5b505050506040513d601f19601f8201168201806040525081019061111691906115a7565b6111255760009250505061113e565b8061112f8161165a565b915050611070565b5060019150505b9392505050565b61114d6112a1565b6001600160a01b03811660009081526067602052604090205460ff166111b55760405162461bcd60e51b815260206004820152601960248201527f63616c6c206f6e6c79206f6e20626f756e64206d6f64756c65000000000000006044820152606401610312565b6040518284823760008084836000865af16111d4573d6000803e3d6000fd5b50806001600160a01b03167f20d79de70adcc6e9353d8a9a5646b46dc352710d0a310b1ad1f67faeca7ef89161120a858561137c565b6040516001600160e01b0319909116815260200160405180910390a2505050565b6112336112a1565b6001600160a01b0381166112985760405162461bcd60e51b815260206004820152602660248201527f4f776e61626c653a206e6577206f776e657220697320746865207a65726f206160448201526564647265737360d01b6064820152608401610312565b611065816112fb565b6033546001600160a01b03163314610a085760405162461bcd60e51b815260206004820181905260248201527f4f776e61626c653a2063616c6c6572206973206e6f7420746865206f776e65726044820152606401610312565b603380546001600160a01b038381166001600160a01b0319831681179093556040519116919082907f8be0079c531659141344cd1fd0a4f28419497f9722a3daafe3b4186f6b6457e090600090a35050565b600054610100900460ff166113745760405162461bcd60e51b81526004016103129061169c565b610a08611390565b60006004821061138a575081355b92915050565b600054610100900460ff166113b75760405162461bcd60e51b81526004016103129061169c565b610a08336112fb565b80356001600160a01b03811681146113d757600080fd5b919050565b6000602082840312156113ee57600080fd5b61113e826113c0565b801515811461106557600080fd5b6000806040838503121561141857600080fd5b611421836113c0565b91506020830135611431816113f7565b809150509250929050565b6000806040838503121561144f57600080fd5b611458836113c0565b946020939093013593505050565b60008060006060848603121561147b57600080fd5b611484846113c0565b9250611492602085016113c0565b9150604084013590509250925092565b6020808252825182820181905260009190848201906040850190845b818110156114e35783516001600160a01b0316835292840192918401916001016114be565b50909695505050505050565b60008060006040848603121561150457600080fd5b833567ffffffffffffffff8082111561151c57600080fd5b818601915086601f83011261153057600080fd5b81358181111561153f57600080fd5b87602082850101111561155157600080fd5b60209283019550935061156791860190506113c0565b90509250925092565b6020808252601f908201527f696e76616c696420617267756d656e74202d207a65726f206164647265737300604082015260600190565b6000602082840312156115b957600080fd5b815161113e816113f7565b60208082526044908201527f6572726f72203a20746869732061646472657373206973206e6f74206120746f60408201527f6b656e20626f756e6420746f2074686520636f6d706c69616e636520636f6e746060820152631c9858dd60e21b608082015260a00190565b634e487b7160e01b600052603260045260246000fd5b634e487b7160e01b600052601160045260246000fd5b60006001820161166c5761166c611644565b5060010190565b8181038181111561138a5761138a611644565b634e487b7160e01b600052603160045260246000fd5b6020808252602b908201527f496e697469616c697a61626c653a20636f6e7472616374206973206e6f74206960408201526a6e697469616c697a696e6760a81b60608201526080019056fea2646970667358221220dd173d4900c6aa91ac8b187fca6d0be25df1720bd1cd46407c38de42e8e9395664736f6c63430008110033",
  "linkReferences": {},
  "deployedLinkReferences": {}
}