{
  "_format": "hh-sol-artifact-1",
  "contractName": "PortfolioTracker",
  "sourceName": "contracts/PortfolioTracker.sol",
  "abi": [
    {
      "inputs": [
        {
          "internalType": "address",
          "name": "_tokenFactory",
          "type": "address"
        }
      ],
      "stateMutability": "nonpayable",
      "type": "constructor"
    },
    {
      "anonymous": false,
      "inputs": [
        {
          "indexed": true,
          "internalType": "address",
          "name": "investor",
          "type": "address"
        },
        {
          "indexed": true,
          "internalType": "string",
          "name": "propertyId",
          "type": "string"
        },
        {
          "indexed": false,
          "internalType": "uint256",
          "name": "tokenAmount",
          "type": "uint256"
        },
        {
          "indexed": false,
          "internalType": "uint256",
          "name": "purchasePrice",
          "type": "uint256"
        }
      ],
      "name": "InvestmentAdded",
      "type": "event"
    },
    {
      "anonymous": false,
      "inputs": [
        {
          "indexed": true,
          "internalType": "address",
          "name": "investor",
          "type": "address"
        },
        {
          "indexed": true,
          "internalType": "string",
          "name": "propertyId",
          "type": "string"
        },
        {
          "indexed": false,
          "internalType": "uint256",
          "name": "newTokenAmount",
          "type": "uint256"
        }
      ],
      "name": "InvestmentUpdated",
      "type": "event"
    },
    {
      "anonymous": false,
      "inputs": [
        {
          "indexed": true,
          "internalType": "address",
          "name": "previousOwner",
          "type": "address"
        },
        {
          "indexed": true,
          "internalType": "address",
          "name": "newOwner",
          "type": "address"
        }
      ],
      "name": "OwnershipTransferred",
      "type": "event"
    },
    {
      "anonymous": false,
      "inputs": [
        {
          "indexed": true,
          "internalType": "string",
          "name": "propertyId",
          "type": "string"
        },
        {
          "indexed": false,
          "internalType": "uint256",
          "name": "totalAmount",
          "type": "uint256"
        },
        {
          "indexed": false,
          "internalType": "uint256",
          "name": "investorCount",
          "type": "uint256"
        }
      ],
      "name": "ReturnsDistributed",
      "type": "event"
    },
    {
      "inputs": [
        {
          "internalType": "address",
          "name": "investor",
          "type": "address"
        },
        {
          "internalType": "string",
          "name": "propertyId",
          "type": "string"
        },
        {
          "internalType": "uint256",
          "name": "tokenAmount",
          "type": "uint256"
        },
        {
          "internalType": "uint256",
          "name": "purchasePrice",
          "type": "uint256"
        }
      ],
      "name": "addInvestment",
      "outputs": [],
      "stateMutability": "nonpayable",
      "type": "function"
    },
    {
      "inputs": [
        {
          "internalType": "address",
          "name": "investor",
          "type": "address"
        },
        {
          "internalType": "string",
          "name": "propertyId",
          "type": "string"
        }
      ],
      "name": "getInvestmentDetails",
      "outputs": [
        {
          "components": [
            {
              "internalType": "string",
              "name": "propertyId",
              "type": "string"
            },
            {
              "internalType": "address",
              "name": "tokenAddress",
              "type": "address"
            },
            {
              "internalType": "uint256",
              "name": "tokenAmount",
              "type": "uint256"
            },
            {
              "internalType": "uint256",
              "name": "purchasePrice",
              "type": "uint256"
            },
            {
              "internalType": "uint256",
              "name": "purchaseTimestamp",
              "type": "uint256"
            },
            {
              "internalType": "bool",
              "name": "isActive",
              "type": "bool"
            }
          ],
          "internalType": "struct PortfolioTracker.Investment",
          "name": "",
          "type": "tuple"
        }
      ],
      "stateMutability": "view",
      "type": "function"
    },
    {
      "inputs": [
        {
          "internalType": "string",
          "name": "propertyId",
          "type": "string"
        }
      ],
      "name": "getInvestorCount",
      "outputs": [
        {
          "internalType": "uint256",
          "name": "",
          "type": "uint256"
        }
      ],
      "stateMutability": "view",
      "type": "function"
    },
    {
      "inputs": [
        {
          "internalType": "address",
          "name": "investor",
          "type": "address"
        }
      ],
      "name": "getInvestorPortfolio",
      "outputs": [
        {
          "components": [
            {
              "internalType": "string",
              "name": "propertyId",
              "type": "string"
            },
            {
              "internalType": "address",
              "name": "tokenAddress",
              "type": "address"
            },
            {
              "internalType": "uint256",
              "name": "tokenAmount",
              "type": "uint256"
            },
            {
              "internalType": "uint256",
              "name": "purchasePrice",
              "type": "uint256"
            },
            {
              "internalType": "uint256",
              "name": "purchaseTimestamp",
              "type": "uint256"
            },
            {
              "internalType": "bool",
              "name": "isActive",
              "type": "bool"
            }
          ],
          "internalType": "struct PortfolioTracker.Investment[]",
          "name": "",
          "type": "tuple[]"
        }
      ],
      "stateMutability": "view",
      "type": "function"
    },
    {
      "inputs": [
        {
          "internalType": "address",
          "name": "investor",
          "type": "address"
        }
      ],
      "name": "getPortfolioSummary",
      "outputs": [
        {
          "components": [
            {
              "internalType": "uint256",
              "name": "totalInvestments",
              "type": "uint256"
            },
            {
              "internalType": "uint256",
              "name": "totalValue",
              "type": "uint256"
            },
            {
              "internalType": "uint256",
              "name": "totalTokens",
              "type": "uint256"
            },
            {
              "internalType": "uint256",
              "name": "activeProperties",
              "type": "uint256"
            },
            {
              "internalType": "uint256",
              "name": "totalReturns",
              "type": "uint256"
            }
          ],
          "internalType": "struct PortfolioTracker.PortfolioSummary",
          "name": "",
          "type": "tuple"
        }
      ],
      "stateMutability": "view",
      "type": "function"
    },
    {
      "inputs": [
        {
          "internalType": "string",
          "name": "propertyId",
          "type": "string"
        }
      ],
      "name": "getPropertyInvestors",
      "outputs": [
        {
          "internalType": "address[]",
          "name": "",
          "type": "address[]"
        }
      ],
      "stateMutability": "view",
      "type": "function"
    },
    {
      "inputs": [
        {
          "internalType": "string",
          "name": "propertyId",
          "type": "string"
        }
      ],
      "name": "getTotalInvestmentValue",
      "outputs": [
        {
          "internalType": "uint256",
          "name": "",
          "type": "uint256"
        }
      ],
      "stateMutability": "view",
      "type": "function"
    },
    {
      "inputs": [
        {
          "internalType": "address",
          "name": "",
          "type": "address"
        },
        {
          "internalType": "uint256",
          "name": "",
          "type": "uint256"
        }
      ],
      "name": "investorPortfolios",
      "outputs": [
        {
          "internalType": "string",
          "name": "propertyId",
          "type": "string"
        },
        {
          "internalType": "address",
          "name": "tokenAddress",
          "type": "address"
        },
        {
          "internalType": "uint256",
          "name": "tokenAmount",
          "type": "uint256"
        },
        {
          "internalType": "uint256",
          "name": "purchasePrice",
          "type": "uint256"
        },
        {
          "internalType": "uint256",
          "name": "purchaseTimestamp",
          "type": "uint256"
        },
        {
          "internalType": "bool",
          "name": "isActive",
          "type": "bool"
        }
      ],
      "stateMutability": "view",
      "type": "function"
    },
    {
      "inputs": [
        {
          "internalType": "address",
          "name": "",
          "type": "address"
        },
        {
          "internalType": "string",
          "name": "",
          "type": "string"
        }
      ],
      "name": "investorPropertyIndex",
      "outputs": [
        {
          "internalType": "uint256",
          "name": "",
          "type": "uint256"
        }
      ],
      "stateMutability": "view",
      "type": "function"
    },
    {
      "inputs": [],
      "name": "owner",
      "outputs": [
        {
          "internalType": "address",
          "name": "",
          "type": "address"
        }
      ],
      "stateMutability": "view",
      "type": "function"
    },
    {
      "inputs": [
        {
          "internalType": "string",
          "name": "",
          "type": "string"
        },
        {
          "internalType": "uint256",
          "name": "",
          "type": "uint256"
        }
      ],
      "name": "propertyInvestors",
      "outputs": [
        {
          "internalType": "address",
          "name": "",
          "type": "address"
        }
      ],
      "stateMutability": "view",
      "type": "function"
    },
    {
      "inputs": [],
      "name": "renounceOwnership",
      "outputs": [],
      "stateMutability": "nonpayable",
      "type": "function"
    },
    {
      "inputs": [
        {
          "internalType": "string",
          "name": "propertyId",
          "type": "string"
        },
        {
          "internalType": "uint256",
          "name": "totalAmount",
          "type": "uint256"
        }
      ],
      "name": "simulateReturnsDistribution",
      "outputs": [
        {
          "internalType": "address[]",
          "name": "investors",
          "type": "address[]"
        },
        {
          "internalType": "uint256[]",
          "name": "amounts",
          "type": "uint256[]"
        }
      ],
      "stateMutability": "view",
      "type": "function"
    },
    {
      "inputs": [],
      "name": "tokenFactory",
      "outputs": [
        {
          "internalType": "contract PropertyTokenFactory",
          "name": "",
          "type": "address"
        }
      ],
      "stateMutability": "view",
      "type": "function"
    },
    {
      "inputs": [
        {
          "internalType": "address",
          "name": "newOwner",
          "type": "address"
        }
      ],
      "name": "transferOwnership",
      "outputs": [],
      "stateMutability": "nonpayable",
      "type": "function"
    },
    {
      "inputs": [
        {
          "internalType": "address",
          "name": "investor",
          "type": "address"
        },
        {
          "internalType": "string",
          "name": "propertyId",
          "type": "string"
        },
        {
          "internalType": "bool",
          "name": "isActive",
          "type": "bool"
        }
      ],
      "name": "updateInvestmentStatus",
      "outputs": [],
      "stateMutability": "nonpayable",
      "type": "function"
    }
  ],
  "bytecode": "0x60a06040523480156200001157600080fd5b5060405162002421380380620024218339810160408190526200003491620000a1565b6200003f3362000051565b6001600160a01b0316608052620000d3565b600080546001600160a01b038381166001600160a01b0319831681178455604051919092169283917f8be0079c531659141344cd1fd0a4f28419497f9722a3daafe3b4186f6b6457e09190a35050565b600060208284031215620000b457600080fd5b81516001600160a01b0381168114620000cc57600080fd5b9392505050565b60805161231d62000104600039600081816102ea015281816105a601528181610c490152611105015261231d6000f3fe608060405234801561001057600080fd5b50600436106101005760003560e01c806390252dac11610097578063e346f57011610066578063e346f5701461027d578063e44543e4146102d2578063e77772fe146102e5578063f2fde38b1461030c57600080fd5b806390252dac14610216578063ad17f02214610229578063ba0ca5321461023c578063df59d4fd1461025c57600080fd5b806338833109116100d357806338833109146101ad5780633a22a211146101d8578063715018a6146101fd5780638da5cb5b1461020557600080fd5b80631016a4ca146101055780631afdcb451461012e5780632abfebce1461014e5780632fef2e5a14610163575b600080fd5b6101186101133660046119f9565b61031f565b6040516101259190611a72565b60405180910390f35b61014161013c366004611aa1565b610399565b6040516101259190611b9d565b61016161015c366004611bb0565b61058c565b005b61019f610171366004611aa1565b6002602090815260009283526040909220815180830184018051928152908401929093019190912091525481565b604051908152602001610125565b6101c06101bb366004611c10565b610afa565b6040516001600160a01b039091168152602001610125565b6101eb6101e6366004611c55565b610b41565b60405161012596959493929190611c81565b610161610c30565b6000546001600160a01b03166101c0565b61019f6102243660046119f9565b610c44565b61019f6102373660046119f9565b610e88565b61024f61024a366004611cc8565b610eb0565b6040516101259190611ce5565b61026f61026a366004611c10565b610ffd565b604051610125929190611d47565b61029061028b366004611cc8565b611347565b6040516101259190600060a082019050825182526020830151602083015260408301516040830152606083015160608301526080830151608083015292915050565b6101616102e0366004611dac565b611703565b6101c07f000000000000000000000000000000000000000000000000000000000000000081565b61016161031a366004611cc8565b6117e8565b60606003826040516103319190611e10565b908152604080519182900360209081018320805480830285018301909352828452919083018282801561038d57602002820191906000526020600020905b81546001600160a01b0316815260019091019060200180831161036f575b50505050509050919050565b6103dd6040518060c001604052806060815260200160006001600160a01b031681526020016000815260200160008152602001600081526020016000151581525090565b6001600160a01b0383166000908152600260205260408082209051610403908590611e10565b9081526020016040518091039020549050600081116104605760405162461bcd60e51b8152602060048201526014602482015273125b9d995cdd1b595b9d081b9bdd08199bdd5b9960621b60448201526064015b60405180910390fd5b6001600160a01b0384166000908152600160208190526040909120906104869083611e42565b8154811061049657610496611e55565b90600052602060002090600602016040518060c00160405290816000820180546104bf90611e6b565b80601f01602080910402602001604051908101604052809291908181526020018280546104eb90611e6b565b80156105385780601f1061050d57610100808354040283529160200191610538565b820191906000526020600020905b81548152906001019060200180831161051b57829003601f168201915b505050918352505060018201546001600160a01b0316602082015260028201546040820152600382015460608201526004820154608082015260059091015460ff16151560a0909101529150505b92915050565b6040516366484fcb60e01b81526000906001600160a01b037f000000000000000000000000000000000000000000000000000000000000000016906366484fcb906105db908790600401611ea5565b600060405180830381865afa1580156105f8573d6000803e3d6000fd5b505050506040513d6000823e601f3d908101601f191682016040526106209190810190611f0d565b80519091506001600160a01b031661067a5760405162461bcd60e51b815260206004820152601d60248201527f50726f706572747920746f6b656e20646f6573206e6f742065786973740000006044820152606401610457565b8051336001600160a01b038216148061069d57506000546001600160a01b031633145b6106da5760405162461bcd60e51b815260206004820152600e60248201526d139bdd08185d5d1a1bdc9a5e995960921b6044820152606401610457565b6001600160a01b0386166000908152600260205260408082209051610700908890611e10565b90815260200160405180910390205490508060001480156107d457506001600160a01b03871660009081526001602052604090205415806107d457508560405160200161074d9190611e10565b6040516020818303038152906040528051906020012060016000896001600160a01b03166001600160a01b0316815260200190815260200160002060008154811061079a5761079a611e55565b90600052602060002090600602016000016040516020016107bb9190611fce565b6040516020818303038152906040528051906020012014155b1561098e576040805160c08101825287815284516001600160a01b0390811660208084019190915282840189905260608301889052426080840152600160a08401819052918b166000908152828252938420805492830181558452909220815191928392600690910290910190819061084d9082612093565b50602082810151600183810180546001600160a01b0319166001600160a01b03938416179055604080860151600280870191909155606087015160038701556080870151600487015560a0909601516005909501805460ff191695151595909517909455908c166000908152908252828120549390915281902090516108d4908a90611e10565b9081526020016040518091039020819055506003876040516108f69190611e10565b908152604051602091819003820181208054600181018255600091825292902090910180546001600160a01b0319166001600160a01b038b1617905561093d908890611e10565b6040805191829003822088835260208301889052916001600160a01b038b16917f148cb0bf23ceffc8f52a1c7610c73bd36e31460897e8625724aae14d1c608aae910160405180910390a350610af1565b600080821161099e5760006109a9565b6109a9600183611e42565b6001600160a01b038916600090815260016020526040902080549192508791839081106109d8576109d8611e55565b906000526020600020906006020160020160008282546109f89190612153565b90915550506001600160a01b0388166000908152600160205260409020805486919083908110610a2a57610a2a611e55565b90600052602060002090600602016003016000828254610a4a9190612153565b9091555050604051610a5d908890611e10565b6040518091039020886001600160a01b03167f42839f92722e456b77c10a359681f78b173f2964963ea8711b1871f07db55b2b600160008c6001600160a01b03166001600160a01b031681526020019081526020016000208481548110610ac657610ac6611e55565b906000526020600020906006020160020154604051610ae791815260200190565b60405180910390a3505b50505050505050565b81516020818401810180516003825292820191850191909120919052805482908110610b2557600080fd5b6000918252602090912001546001600160a01b03169150829050565b60016020528160005260406000208181548110610b5d57600080fd5b906000526020600020906006020160009150915050806000018054610b8190611e6b565b80601f0160208091040260200160405190810160405280929190818152602001828054610bad90611e6b565b8015610bfa5780601f10610bcf57610100808354040283529160200191610bfa565b820191906000526020600020905b815481529060010190602001808311610bdd57829003601f168201915b505050600184015460028501546003860154600487015460059097015495966001600160a01b0390931695919450925060ff1686565b610c38611861565b610c4260006118bb565b565b6000807f00000000000000000000000000000000000000000000000000000000000000006001600160a01b03166366484fcb846040518263ffffffff1660e01b8152600401610c939190611ea5565b600060405180830381865afa158015610cb0573d6000803e3d6000fd5b505050506040513d6000823e601f3d908101601f19168201604052610cd89190810190611f0d565b80519091506001600160a01b0316610d325760405162461bcd60e51b815260206004820152601d60248201527f50726f706572747920746f6b656e20646f6573206e6f742065786973740000006044820152606401610457565b600081600001519050806001600160a01b031663313ce5676040518163ffffffff1660e01b8152600401602060405180830381865afa158015610d79573d6000803e3d6000fd5b505050506040513d601f19601f82011682018060405250810190610d9d9190612166565b610da890600a61226d565b816001600160a01b031663e63abb6a6040518163ffffffff1660e01b8152600401602060405180830381865afa158015610de6573d6000803e3d6000fd5b505050506040513d601f19601f82011682018060405250810190610e0a919061227c565b826001600160a01b03166318160ddd6040518163ffffffff1660e01b8152600401602060405180830381865afa158015610e48573d6000803e3d6000fd5b505050506040513d601f19601f82011682018060405250810190610e6c919061227c565b610e769190612295565b610e8091906122ac565b949350505050565b6000600382604051610e9a9190611e10565b9081526040519081900360200190205492915050565b6001600160a01b0381166000908152600160209081526040808320805482518185028101850190935280835260609492939192909184015b82821015610ff257838290600052602060002090600602016040518060c0016040529081600082018054610f1b90611e6b565b80601f0160208091040260200160405190810160405280929190818152602001828054610f4790611e6b565b8015610f945780601f10610f6957610100808354040283529160200191610f94565b820191906000526020600020905b815481529060010190602001808311610f7757829003601f168201915b50505091835250506001828101546001600160a01b031660208084019190915260028401546040840152600384015460608401526004840154608084015260059093015460ff16151560a09092019190915291835292019101610ee8565b505050509050919050565b60608060006003856040516110129190611e10565b908152604080519182900360209081018320805480830285018301909352828452919083018282801561106e57602002820191906000526020600020905b81546001600160a01b03168152600190910190602001808311611050575b50505050509050805167ffffffffffffffff81111561108f5761108f61190b565b6040519080825280602002602001820160405280156110b8578160200160208202803683370190505b509250805167ffffffffffffffff8111156110d5576110d561190b565b6040519080825280602002602001820160405280156110fe578160200160208202803683370190505b50915060007f00000000000000000000000000000000000000000000000000000000000000006001600160a01b03166366484fcb876040518263ffffffff1660e01b815260040161114f9190611ea5565b600060405180830381865afa15801561116c573d6000803e3d6000fd5b505050506040513d6000823e601f3d908101601f191682016040526111949190810190611f0d565b90506000816000015190506000816001600160a01b03166318160ddd6040518163ffffffff1660e01b8152600401602060405180830381865afa1580156111df573d6000803e3d6000fd5b505050506040513d601f19601f82011682018060405250810190611203919061227c565b905060005b845181101561133b5784818151811061122357611223611e55565b602002602001015187828151811061123d5761123d611e55565b60200260200101906001600160a01b031690816001600160a01b0316815250506000836001600160a01b03166370a0823187848151811061128057611280611e55565b60200260200101516040518263ffffffff1660e01b81526004016112b391906001600160a01b0391909116815260200190565b602060405180830381865afa1580156112d0573d6000803e3d6000fd5b505050506040513d601f19601f820116820180604052508101906112f4919061227c565b905082611301828b612295565b61130b91906122ac565b87838151811061131d5761131d611e55565b60209081029190910101525080611333816122ce565b915050611208565b50505050509250929050565b6113796040518060a0016040528060008152602001600081526020016000815260200160008152602001600081525090565b6001600160a01b038216600090815260016020908152604080832080548251818502810185019093528083529192909190849084015b828210156114b957838290600052602060002090600602016040518060c00160405290816000820180546113e290611e6b565b80601f016020809104026020016040519081016040528092919081815260200182805461140e90611e6b565b801561145b5780601f106114305761010080835404028352916020019161145b565b820191906000526020600020905b81548152906001019060200180831161143e57829003601f168201915b50505091835250506001828101546001600160a01b031660208084019190915260028401546040840152600384015460608401526004840154608084015260059093015460ff16151560a090920191909152918352920191016113af565b50505050905060008151905060008060008060005b86518110156116d5578681815181106114e9576114e9611e55565b602002602001015160a00151156116c35782611504816122ce565b93505086818151811061151957611519611e55565b602002602001015160400151846115309190612153565b9350600087828151811061154657611546611e55565b60200260200101516020015190506000816001600160a01b031663313ce5676040518163ffffffff1660e01b8152600401602060405180830381865afa158015611594573d6000803e3d6000fd5b505050506040513d601f19601f820116820180604052508101906115b89190612166565b6115c390600a61226d565b8984815181106115d5576115d5611e55565b602002602001015160400151836001600160a01b031663e63abb6a6040518163ffffffff1660e01b8152600401602060405180830381865afa15801561161f573d6000803e3d6000fd5b505050506040513d601f19601f82011682018060405250810190611643919061227c565b61164d9190612295565b61165791906122ac565b90506116638188612153565b965088838151811061167757611677611e55565b6020026020010151606001518111156116c05788838151811061169c5761169c611e55565b602002602001015160600151816116b39190611e42565b6116bd9085612153565b93505b50505b806116cd816122ce565b9150506114ce565b506040805160a081018252958652602086019490945292840191909152606083015260808201529392505050565b61170b611861565b6001600160a01b0383166000908152600260205260408082209051611731908590611e10565b9081526020016040518091039020549050600081116117895760405162461bcd60e51b8152602060048201526014602482015273125b9d995cdd1b595b9d081b9bdd08199bdd5b9960621b6044820152606401610457565b6001600160a01b038416600090815260016020819052604090912083916117b09084611e42565b815481106117c0576117c0611e55565b60009182526020909120600690910201600501805460ff191691151591909117905550505050565b6117f0611861565b6001600160a01b0381166118555760405162461bcd60e51b815260206004820152602660248201527f4f776e61626c653a206e6577206f776e657220697320746865207a65726f206160448201526564647265737360d01b6064820152608401610457565b61185e816118bb565b50565b6000546001600160a01b03163314610c425760405162461bcd60e51b815260206004820181905260248201527f4f776e61626c653a2063616c6c6572206973206e6f7420746865206f776e65726044820152606401610457565b600080546001600160a01b038381166001600160a01b0319831681178455604051919092169283917f8be0079c531659141344cd1fd0a4f28419497f9722a3daafe3b4186f6b6457e09190a35050565b634e487b7160e01b600052604160045260246000fd5b60405160c0810167ffffffffffffffff811182821017156119445761194461190b565b60405290565b604051601f8201601f1916810167ffffffffffffffff811182821017156119735761197361190b565b604052919050565b600067ffffffffffffffff8211156119955761199561190b565b50601f01601f191660200190565b600082601f8301126119b457600080fd5b81356119c76119c28261197b565b61194a565b8181528460208386010111156119dc57600080fd5b816020850160208301376000918101602001919091529392505050565b600060208284031215611a0b57600080fd5b813567ffffffffffffffff811115611a2257600080fd5b610e80848285016119a3565b600081518084526020808501945080840160005b83811015611a675781516001600160a01b031687529582019590820190600101611a42565b509495945050505050565b602081526000611a856020830184611a2e565b9392505050565b6001600160a01b038116811461185e57600080fd5b60008060408385031215611ab457600080fd5b8235611abf81611a8c565b9150602083013567ffffffffffffffff811115611adb57600080fd5b611ae7858286016119a3565b9150509250929050565b60005b83811015611b0c578181015183820152602001611af4565b50506000910152565b60008151808452611b2d816020860160208601611af1565b601f01601f19169290920160200192915050565b6000815160c08452611b5660c0850182611b15565b6020848101516001600160a01b03169086015260408085015190860152606080850151908601526080808501519086015260a0938401511515949093019390935250919050565b602081526000611a856020830184611b41565b60008060008060808587031215611bc657600080fd5b8435611bd181611a8c565b9350602085013567ffffffffffffffff811115611bed57600080fd5b611bf9878288016119a3565b949794965050505060408301359260600135919050565b60008060408385031215611c2357600080fd5b823567ffffffffffffffff811115611c3a57600080fd5b611c46858286016119a3565b95602094909401359450505050565b60008060408385031215611c6857600080fd5b8235611c7381611a8c565b946020939093013593505050565b60c081526000611c9460c0830189611b15565b6001600160a01b0397909716602083015250604081019490945260608401929092526080830152151560a090910152919050565b600060208284031215611cda57600080fd5b8135611a8581611a8c565b6000602080830181845280855180835260408601915060408160051b870101925083870160005b82811015611d3a57603f19888603018452611d28858351611b41565b94509285019290850190600101611d0c565b5092979650505050505050565b604081526000611d5a6040830185611a2e565b82810360208481019190915284518083528582019282019060005b81811015611d9157845183529383019391830191600101611d75565b5090979650505050505050565b801515811461185e57600080fd5b600080600060608486031215611dc157600080fd5b8335611dcc81611a8c565b9250602084013567ffffffffffffffff811115611de857600080fd5b611df4868287016119a3565b9250506040840135611e0581611d9e565b809150509250925092565b60008251611e22818460208701611af1565b9190910192915050565b634e487b7160e01b600052601160045260246000fd5b8181038181111561058657610586611e2c565b634e487b7160e01b600052603260045260246000fd5b600181811c90821680611e7f57607f821691505b602082108103611e9f57634e487b7160e01b600052602260045260246000fd5b50919050565b602081526000611a856020830184611b15565b600082601f830112611ec957600080fd5b8151611ed76119c28261197b565b818152846020838601011115611eec57600080fd5b610e80826020830160208701611af1565b8051611f0881611d9e565b919050565b600060208284031215611f1f57600080fd5b815167ffffffffffffffff80821115611f3757600080fd5b9083019060c08286031215611f4b57600080fd5b611f53611921565b8251611f5e81611a8c565b81526020830151611f6e81611a8c565b60208201526040830151611f8181611a8c565b6040820152606083015182811115611f9857600080fd5b611fa487828601611eb8565b60608301525060808301516080820152611fc060a08401611efd565b60a082015295945050505050565b6000808354611fdc81611e6b565b60018281168015611ff4576001811461200957612038565b60ff1984168752821515830287019450612038565b8760005260208060002060005b8581101561202f5781548a820152908401908201612016565b50505082870194505b50929695505050505050565b601f82111561208e57600081815260208120601f850160051c8101602086101561206b5750805b601f850160051c820191505b8181101561208a57828155600101612077565b5050505b505050565b815167ffffffffffffffff8111156120ad576120ad61190b565b6120c1816120bb8454611e6b565b84612044565b602080601f8311600181146120f657600084156120de5750858301515b600019600386901b1c1916600185901b17855561208a565b600085815260208120601f198616915b8281101561212557888601518255948401946001909101908401612106565b50858210156121435787850151600019600388901b60f8161c191681555b5050505050600190811b01905550565b8082018082111561058657610586611e2c565b60006020828403121561217857600080fd5b815160ff81168114611a8557600080fd5b600181815b808511156121c45781600019048211156121aa576121aa611e2c565b808516156121b757918102915b93841c939080029061218e565b509250929050565b6000826121db57506001610586565b816121e857506000610586565b81600181146121fe576002811461220857612224565b6001915050610586565b60ff84111561221957612219611e2c565b50506001821b610586565b5060208310610133831016604e8410600b8410161715612247575081810a610586565b6122518383612189565b806000190482111561226557612265611e2c565b029392505050565b6000611a8560ff8416836121cc565b60006020828403121561228e57600080fd5b5051919050565b808202811582820484141761058657610586611e2c565b6000826122c957634e487b7160e01b600052601260045260246000fd5b500490565b6000600182016122e0576122e0611e2c565b506001019056fea26469706673582212203dbfdcd275e2d05ef7437e092ac21c35654444875e520c5c419705cc5ebb3b7d64736f6c63430008110033",
  "linkReferences": {},
  "deployedLinkReferences": {}
}