{
  "_format": "hh-sol-artifact-1",
  "contractName": "FractionalPurchase",
  "sourceName": "contracts/FractionalPurchase.sol",
  "abi": [
    {
      "inputs": [
        {
          "internalType": "address",
          "name": "_tokenFactory",
          "type": "address"
        },
        {
          "internalType": "address",
          "name": "_feeRecipient",
          "type": "address"
        }
      ],
      "stateMutability": "nonpayable",
      "type": "constructor"
    },
    {
      "anonymous": false,
      "inputs": [
        {
          "indexed": true,
          "internalType": "address",
          "name": "previousOwner",
          "type": "address"
        },
        {
          "indexed": true,
          "internalType": "address",
          "name": "newOwner",
          "type": "address"
        }
      ],
      "name": "OwnershipTransferred",
      "type": "event"
    },
    {
      "anonymous": false,
      "inputs": [
        {
          "indexed": true,
          "internalType": "string",
          "name": "propertyId",
          "type": "string"
        },
        {
          "indexed": true,
          "internalType": "address",
          "name": "tokenAddress",
          "type": "address"
        },
        {
          "indexed": false,
          "internalType": "uint256",
          "name": "availableTokens",
          "type": "uint256"
        },
        {
          "indexed": false,
          "internalType": "uint256",
          "name": "pricePerToken",
          "type": "uint256"
        }
      ],
      "name": "PropertyListed",
      "type": "event"
    },
    {
      "anonymous": false,
      "inputs": [
        {
          "indexed": true,
          "internalType": "bytes32",
          "name": "orderId",
          "type": "bytes32"
        },
        {
          "indexed": true,
          "internalType": "address",
          "name": "investor",
          "type": "address"
        },
        {
          "indexed": true,
          "internalType": "string",
          "name": "propertyId",
          "type": "string"
        },
        {
          "indexed": false,
          "internalType": "uint256",
          "name": "tokenAmount",
          "type": "uint256"
        },
        {
          "indexed": false,
          "internalType": "uint256",
          "name": "totalPrice",
          "type": "uint256"
        }
      ],
      "name": "PurchaseCompleted",
      "type": "event"
    },
    {
      "anonymous": false,
      "inputs": [
        {
          "indexed": true,
          "internalType": "bytes32",
          "name": "orderId",
          "type": "bytes32"
        },
        {
          "indexed": true,
          "internalType": "address",
          "name": "investor",
          "type": "address"
        },
        {
          "indexed": true,
          "internalType": "string",
          "name": "propertyId",
          "type": "string"
        },
        {
          "indexed": false,
          "internalType": "uint256",
          "name": "tokenAmount",
          "type": "uint256"
        },
        {
          "indexed": false,
          "internalType": "uint256",
          "name": "totalPrice",
          "type": "uint256"
        }
      ],
      "name": "PurchaseOrderCreated",
      "type": "event"
    },
    {
      "anonymous": false,
      "inputs": [
        {
          "indexed": true,
          "internalType": "bytes32",
          "name": "orderId",
          "type": "bytes32"
        },
        {
          "indexed": false,
          "internalType": "uint256",
          "name": "refundAmount",
          "type": "uint256"
        }
      ],
      "name": "PurchaseRefunded",
      "type": "event"
    },
    {
      "inputs": [
        {
          "internalType": "bytes32",
          "name": "orderId",
          "type": "bytes32"
        }
      ],
      "name": "cancelPurchaseOrder",
      "outputs": [],
      "stateMutability": "nonpayable",
      "type": "function"
    },
    {
      "inputs": [
        {
          "internalType": "string",
          "name": "propertyId",
          "type": "string"
        },
        {
          "internalType": "uint256",
          "name": "tokenAmount",
          "type": "uint256"
        }
      ],
      "name": "createPurchaseOrder",
      "outputs": [],
      "stateMutability": "payable",
      "type": "function"
    },
    {
      "inputs": [],
      "name": "feeRecipient",
      "outputs": [
        {
          "internalType": "address",
          "name": "",
          "type": "address"
        }
      ],
      "stateMutability": "view",
      "type": "function"
    },
    {
      "inputs": [
        {
          "internalType": "address",
          "name": "investor",
          "type": "address"
        }
      ],
      "name": "getInvestorOrders",
      "outputs": [
        {
          "internalType": "bytes32[]",
          "name": "",
          "type": "bytes32[]"
        }
      ],
      "stateMutability": "view",
      "type": "function"
    },
    {
      "inputs": [
        {
          "internalType": "string",
          "name": "propertyId",
          "type": "string"
        }
      ],
      "name": "getPropertyOrders",
      "outputs": [
        {
          "internalType": "bytes32[]",
          "name": "",
          "type": "bytes32[]"
        }
      ],
      "stateMutability": "view",
      "type": "function"
    },
    {
      "inputs": [
        {
          "internalType": "address",
          "name": "",
          "type": "address"
        },
        {
          "internalType": "uint256",
          "name": "",
          "type": "uint256"
        }
      ],
      "name": "investorOrders",
      "outputs": [
        {
          "internalType": "bytes32",
          "name": "",
          "type": "bytes32"
        }
      ],
      "stateMutability": "view",
      "type": "function"
    },
    {
      "inputs": [
        {
          "internalType": "string",
          "name": "propertyId",
          "type": "string"
        },
        {
          "internalType": "uint256",
          "name": "availableTokens",
          "type": "uint256"
        },
        {
          "internalType": "uint256",
          "name": "pricePerToken",
          "type": "uint256"
        }
      ],
      "name": "listPropertyForSale",
      "outputs": [],
      "stateMutability": "nonpayable",
      "type": "function"
    },
    {
      "inputs": [],
      "name": "owner",
      "outputs": [
        {
          "internalType": "address",
          "name": "",
          "type": "address"
        }
      ],
      "stateMutability": "view",
      "type": "function"
    },
    {
      "inputs": [],
      "name": "platformFeePercentage",
      "outputs": [
        {
          "internalType": "uint256",
          "name": "",
          "type": "uint256"
        }
      ],
      "stateMutability": "view",
      "type": "function"
    },
    {
      "inputs": [
        {
          "internalType": "string",
          "name": "",
          "type": "string"
        }
      ],
      "name": "propertyListings",
      "outputs": [
        {
          "internalType": "string",
          "name": "propertyId",
          "type": "string"
        },
        {
          "internalType": "address",
          "name": "tokenAddress",
          "type": "address"
        },
        {
          "internalType": "uint256",
          "name": "availableTokens",
          "type": "uint256"
        },
        {
          "internalType": "uint256",
          "name": "pricePerToken",
          "type": "uint256"
        },
        {
          "internalType": "address",
          "name": "issuer",
          "type": "address"
        },
        {
          "internalType": "bool",
          "name": "isActive",
          "type": "bool"
        }
      ],
      "stateMutability": "view",
      "type": "function"
    },
    {
      "inputs": [
        {
          "internalType": "string",
          "name": "",
          "type": "string"
        },
        {
          "internalType": "uint256",
          "name": "",
          "type": "uint256"
        }
      ],
      "name": "propertyOrders",
      "outputs": [
        {
          "internalType": "bytes32",
          "name": "",
          "type": "bytes32"
        }
      ],
      "stateMutability": "view",
      "type": "function"
    },
    {
      "inputs": [
        {
          "internalType": "bytes32",
          "name": "",
          "type": "bytes32"
        }
      ],
      "name": "purchaseOrders",
      "outputs": [
        {
          "internalType": "address",
          "name": "investor",
          "type": "address"
        },
        {
          "internalType": "string",
          "name": "propertyId",
          "type": "string"
        },
        {
          "internalType": "uint256",
          "name": "tokenAmount",
          "type": "uint256"
        },
        {
          "internalType": "uint256",
          "name": "pricePerToken",
          "type": "uint256"
        },
        {
          "internalType": "uint256",
          "name": "totalPrice",
          "type": "uint256"
        },
        {
          "internalType": "uint256",
          "name": "timestamp",
          "type": "uint256"
        },
        {
          "internalType": "bool",
          "name": "isCompleted",
          "type": "bool"
        },
        {
          "internalType": "bool",
          "name": "isCancelled",
          "type": "bool"
        }
      ],
      "stateMutability": "view",
      "type": "function"
    },
    {
      "inputs": [],
      "name": "renounceOwnership",
      "outputs": [],
      "stateMutability": "nonpayable",
      "type": "function"
    },
    {
      "inputs": [
        {
          "internalType": "address",
          "name": "_feeRecipient",
          "type": "address"
        }
      ],
      "name": "setFeeRecipient",
      "outputs": [],
      "stateMutability": "nonpayable",
      "type": "function"
    },
    {
      "inputs": [
        {
          "internalType": "uint256",
          "name": "_platformFeePercentage",
          "type": "uint256"
        }
      ],
      "name": "setPlatformFee",
      "outputs": [],
      "stateMutability": "nonpayable",
      "type": "function"
    },
    {
      "inputs": [],
      "name": "tokenFactory",
      "outputs": [
        {
          "internalType": "contract PropertyTokenFactory",
          "name": "",
          "type": "address"
        }
      ],
      "stateMutability": "view",
      "type": "function"
    },
    {
      "inputs": [
        {
          "internalType": "address",
          "name": "newOwner",
          "type": "address"
        }
      ],
      "name": "transferOwnership",
      "outputs": [],
      "stateMutability": "nonpayable",
      "type": "function"
    },
    {
      "inputs": [
        {
          "internalType": "string",
          "name": "propertyId",
          "type": "string"
        },
        {
          "internalType": "uint256",
          "name": "newAvailableTokens",
          "type": "uint256"
        },
        {
          "internalType": "uint256",
          "name": "newPricePerToken",
          "type": "uint256"
        },
        {
          "internalType": "bool",
          "name": "isActive",
          "type": "bool"
        }
      ],
      "name": "updatePropertyListing",
      "outputs": [],
      "stateMutability": "nonpayable",
      "type": "function"
    }
  ],
  "bytecode": "0x60a060405260fa6006553480156200001657600080fd5b5060405162002172380380620021728339810160408190526200003991620000e1565b6001600055620000493362000072565b6001600160a01b03918216608052600780546001600160a01b0319169190921617905562000119565b600180546001600160a01b038381166001600160a01b0319831681179093556040519116919082907f8be0079c531659141344cd1fd0a4f28419497f9722a3daafe3b4186f6b6457e090600090a35050565b80516001600160a01b0381168114620000dc57600080fd5b919050565b60008060408385031215620000f557600080fd5b6200010083620000c4565b91506200011060208401620000c4565b90509250929050565b6080516120366200013c600039600081816103400152610a4001526120366000f3fe6080604052600436106101095760003560e01c80639a6fe0f111610095578063cdd78cfc11610064578063cdd78cfc146102f8578063e74b981b1461030e578063e77772fe1461032e578063f2fde38b14610362578063f5a44a8c1461038257600080fd5b80639a6fe0f114610264578063a072261a14610284578063a7992b04146102a4578063bb9af734146102d857600080fd5b80635a56255b116100dc5780635a56255b146101b15780636107e707146101e3578063715018a6146102035780638da5cb5b146102185780638ef8e27e1461023657600080fd5b806312e8e2c31461010e57806329403eac146101305780632d915ca7146101665780634690484014610179575b600080fd5b34801561011a57600080fd5b5061012e610129366004611816565b6103a2565b005b34801561013c57600080fd5b5061015061014b366004611844565b6103fe565b60405161015d9190611868565b60405180910390f35b61012e61017436600461199a565b61046a565b34801561018557600080fd5b50600754610199906001600160a01b031681565b6040516001600160a01b03909116815260200161015d565b3480156101bd57600080fd5b506101d16101cc3660046119df565b61094c565b60405161015d96959493929190611a6c565b3480156101ef57600080fd5b5061012e6101fe366004611ab8565b610a26565b34801561020f57600080fd5b5061012e610e11565b34801561022457600080fd5b506001546001600160a01b0316610199565b34801561024257600080fd5b50610256610251366004611b06565b610e25565b60405190815260200161015d565b34801561027057600080fd5b5061012e61027f366004611816565b610e56565b34801561029057600080fd5b5061015061029f3660046119df565b611020565b3480156102b057600080fd5b506102c46102bf366004611816565b61108e565b60405161015d989796959493929190611b32565b3480156102e457600080fd5b5061012e6102f3366004611b9c565b611168565b34801561030457600080fd5b5061025660065481565b34801561031a57600080fd5b5061012e610329366004611844565b61121a565b34801561033a57600080fd5b506101997f000000000000000000000000000000000000000000000000000000000000000081565b34801561036e57600080fd5b5061012e61037d366004611844565b611292565b34801561038e57600080fd5b5061025661039d36600461199a565b611308565b6103aa611333565b6103e88111156103f95760405162461bcd60e51b81526020600482015260156024820152744665652063616e6e6f74206578636565642031302560581b60448201526064015b60405180910390fd5b600655565b6001600160a01b03811660009081526004602090815260409182902080548351818402810184019094528084526060939283018282801561045e57602002820191906000526020600020905b81548152602001906001019080831161044a575b50505050509050919050565b61047261138d565b60006003836040516104849190611bff565b90815260200160405180910390206040518060c00160405290816000820180546104ad90611c1b565b80601f01602080910402602001604051908101604052809291908181526020018280546104d990611c1b565b80156105265780601f106104fb57610100808354040283529160200191610526565b820191906000526020600020905b81548152906001019060200180831161050957829003601f168201915b505050918352505060018201546001600160a01b03908116602083015260028301546040830152600383015460608301526004909201549182166080820152600160a01b90910460ff16151560a0918201528101519091506105ca5760405162461bcd60e51b815260206004820152601c60248201527f50726f7065727479206e6f74206c697374656420666f722073616c650000000060448201526064016103f0565b600082116106265760405162461bcd60e51b815260206004820152602360248201527f546f6b656e20616d6f756e74206d75737420626520677265617465722074686160448201526206e20360ec1b60648201526084016103f0565b806040015182111561067a5760405162461bcd60e51b815260206004820152601d60248201527f496e73756666696369656e7420746f6b656e7320617661696c61626c6500000060448201526064016103f0565b600081606001518361068c9190611c6b565b90506000612710600654836106a19190611c6b565b6106ab9190611c88565b905060006106b98284611caa565b9050803410156107025760405162461bcd60e51b8152602060048201526014602482015273125b9cdd59999a58da595b9d081c185e5b595b9d60621b60448201526064016103f0565b6000338787424360405160200161071d959493929190611cbd565b60408051808303601f190181528282528051602091820120610100840183523384528184018b81528484018b905260608a81015190860152608085018990524260a0860152600060c0860181905260e08601819052828152600290935292909120835181546001600160a01b0319166001600160a01b03909116178155915190935060018201906107ae9082611d58565b50604082810151600283015560608301516003830155608083015160048084019190915560a084015160058085019190915560c08501516006909401805460e09096015115156101000261ff00199515159590951661ffff199096169590951793909317909355336000908152602093845281812080546001810182559082529390209092018390559051610844908990611bff565b908152604051908190036020908101822080546001810182556000918252919020018290558690600390610879908a90611bff565b908152602001604051809103902060020160008282546108999190611e18565b90915550506040516108ac908890611bff565b604080519182900382208883526020830187905291339184917f99f80f345f786b58ae6b7210af5b7d2835b5990d71af62772ab1d0206e65d4de910160405180910390a46108f9816113e6565b8134111561093957336108fc61090f8434611e18565b6040518115909202916000818181858888f19350505050158015610937573d6000803e3d6000fd5b505b50505050506109486001600055565b5050565b805160208183018101805160038252928201919093012091528054819061097290611c1b565b80601f016020809104026020016040519081016040528092919081815260200182805461099e90611c1b565b80156109eb5780601f106109c0576101008083540402835291602001916109eb565b820191906000526020600020905b8154815290600101906020018083116109ce57829003601f168201915b5050505060018301546002840154600385015460049095015493946001600160a01b039283169491935091811690600160a01b900460ff1686565b6040516366484fcb60e01b81526000906001600160a01b037f000000000000000000000000000000000000000000000000000000000000000016906366484fcb90610a75908790600401611e2b565b600060405180830381865afa158015610a92573d6000803e3d6000fd5b505050506040513d6000823e601f3d908101601f19168201604052610aba9190810190611e93565b80519091506001600160a01b0316610b145760405162461bcd60e51b815260206004820152601d60248201527f50726f706572747920746f6b656e20646f6573206e6f7420657869737400000060448201526064016103f0565b8060a00151610b655760405162461bcd60e51b815260206004820152601c60248201527f50726f706572747920746f6b656e206973206e6f74206163746976650000000060448201526064016103f0565b600081600001519050336001600160a01b0316816001600160a01b0316638da5cb5b6040518163ffffffff1660e01b8152600401602060405180830381865afa158015610bb6573d6000803e3d6000fd5b505050506040513d601f19601f82011682018060405250810190610bda9190611f54565b6001600160a01b031614610c265760405162461bcd60e51b81526020600482015260136024820152722737ba103a3432903a37b5b2b71037bbb732b960691b60448201526064016103f0565b60008411610c865760405162461bcd60e51b815260206004820152602760248201527f417661696c61626c6520746f6b656e73206d75737420626520677265617465726044820152660207468616e20360cc1b60648201526084016103f0565b60008311610ce55760405162461bcd60e51b815260206004820152602660248201527f50726963652070657220746f6b656e206d75737420626520677265617465722060448201526507468616e20360d41b60648201526084016103f0565b6040805160c08101825286815283516001600160a01b0316602082015280820186905260608101859052336080820152600160a08201529051600390610d2c908890611bff565b90815260405190819003602001902081518190610d499082611d58565b5060208201516001820180546001600160a01b039283166001600160a01b031990911617905560408084015160028401556060840151600384015560808401516004909301805460a0909501511515600160a01b026001600160a81b0319909516938316939093179390931790915583519151911690610dca908790611bff565b6040805191829003822087835260208301879052917f63419ab8b11d3aefb03f9a6f9d347766113204147e0c4ae01a910433afe681e6910160405180910390a35050505050565b610e19611333565b610e2360006117c4565b565b60046020528160005260406000208181548110610e4157600080fd5b90600052602060002001600091509150505481565b610e5e61138d565b600081815260026020526040902080546001600160a01b03163314610ebb5760405162461bcd60e51b81526020600482015260136024820152722737ba103a34329037b93232b91037bbb732b960691b60448201526064016103f0565b600681015460ff16158015610eda57506006810154610100900460ff16155b610f205760405162461bcd60e51b815260206004820152601760248201527613dc99195c88185b1c9958591e481c1c9bd8d95cdcd959604a1b60448201526064016103f0565b60006127106006548360040154610f379190611c6b565b610f419190611c88565b90506000818360040154610f559190611caa565b60068401805461ff001916610100179055600284015460405191925090600390610f83906001870190611f71565b90815260200160405180910390206002016000828254610fa39190611caa565b9091555050604051339082156108fc029083906000818181858888f19350505050158015610fd5573d6000803e3d6000fd5b50837fe77003540a7ab96c9506a0b6d1ea987af1c283ec88b782c80a97ecf9007fa3158260405161100891815260200190565b60405180910390a250505061101d6001600055565b50565b60606005826040516110329190611bff565b908152604080519182900360209081018320805480830285018301909352828452919083018282801561045e576020028201919060005260206000209081548152602001906001019080831161044a5750505050509050919050565b600260205260009081526040902080546001820180546001600160a01b0390921692916110ba90611c1b565b80601f01602080910402602001604051908101604052809291908181526020018280546110e690611c1b565b80156111335780601f1061110857610100808354040283529160200191611133565b820191906000526020600020905b81548152906001019060200180831161111657829003601f168201915b505050600284015460038501546004860154600587015460069097015495969295919450925060ff8082169161010090041688565b600060038560405161117a9190611bff565b90815260405190819003602001902060048101549091506001600160a01b031633146111e85760405162461bcd60e51b815260206004820152601760248201527f4e6f74207468652070726f70657274792069737375657200000000000000000060448201526064016103f0565b6002810193909355600383019190915560049091018054911515600160a01b0260ff60a01b1990921691909117905550565b611222611333565b6001600160a01b0381166112705760405162461bcd60e51b8152602060048201526015602482015274125b9d985b1a5908199959481c9958da5c1a595b9d605a1b60448201526064016103f0565b600780546001600160a01b0319166001600160a01b0392909216919091179055565b61129a611333565b6001600160a01b0381166112ff5760405162461bcd60e51b815260206004820152602660248201527f4f776e61626c653a206e6577206f776e657220697320746865207a65726f206160448201526564647265737360d01b60648201526084016103f0565b61101d816117c4565b81516020818401810180516005825292820191850191909120919052805482908110610e4157600080fd5b6001546001600160a01b03163314610e235760405162461bcd60e51b815260206004820181905260248201527f4f776e61626c653a2063616c6c6572206973206e6f7420746865206f776e657260448201526064016103f0565b6002600054036113df5760405162461bcd60e51b815260206004820152601f60248201527f5265656e7472616e637947756172643a207265656e7472616e742063616c6c0060448201526064016103f0565b6002600055565b6000818152600260205260409020600681015460ff1615801561141357506006810154610100900460ff16155b6114595760405162461bcd60e51b815260206004820152601760248201527613dc99195c88185b1c9958591e481c1c9bd8d95cdcd959604a1b60448201526064016103f0565b600060038260010160405161146e9190611f71565b90815260200160405180910390206040518060c001604052908160008201805461149790611c1b565b80601f01602080910402602001604051908101604052809291908181526020018280546114c390611c1b565b80156115105780601f106114e557610100808354040283529160200191611510565b820191906000526020600020905b8154815290600101906020018083116114f357829003601f168201915b505050918352505060018201546001600160a01b039081166020808401919091526002840154604080850191909152600385015460608501526004948501548084166080860152600160a01b900460ff16151560a09094019390935284810151835163731d5db560e11b81529351959650946000949286169363e63abb6a938181019392918290030181865afa1580156115ae573d6000803e3d6000fd5b505050506040513d601f19601f820116820180604052508101906115d29190611fe7565b116116295760405162461bcd60e51b815260206004820152602160248201527f50726f7065727479206e6f742070726f7065726c7920696e697469616c697a656044820152601960fa1b60648201526084016103f0565b82546002840154604051631a16b69960e11b81526001600160a01b03928316600482015260248101919091529082169063342d6d3290604401600060405180830381600087803b15801561167c57600080fd5b505af1158015611690573d6000803e3d6000fd5b50505050600061271060065485600401546116ab9190611c6b565b6116b59190611c88565b905060008185600401546116c99190611e18565b60808501516040519192506001600160a01b03169082156108fc029083906000818181858888f19350505050158015611706573d6000803e3d6000fd5b506007546040516001600160a01b039091169083156108fc029084906000818181858888f19350505050158015611741573d6000803e3d6000fd5b5060068501805460ff1916600190811790915560405161176391870190611f71565b604080519182900382208754600289015460048a0154908552602085015290926001600160a01b039091169189917f4fb46d898a9eec3cba8e4fc7c3454337d07961711012f7cbe78f82aff0b29231910160405180910390a4505050505050565b600180546001600160a01b038381166001600160a01b0319831681179093556040519116919082907f8be0079c531659141344cd1fd0a4f28419497f9722a3daafe3b4186f6b6457e090600090a35050565b60006020828403121561182857600080fd5b5035919050565b6001600160a01b038116811461101d57600080fd5b60006020828403121561185657600080fd5b81356118618161182f565b9392505050565b6020808252825182820181905260009190848201906040850190845b818110156118a057835183529284019291840191600101611884565b50909695505050505050565b634e487b7160e01b600052604160045260246000fd5b60405160c0810167ffffffffffffffff811182821017156118e5576118e56118ac565b60405290565b604051601f8201601f1916810167ffffffffffffffff81118282101715611914576119146118ac565b604052919050565b600067ffffffffffffffff821115611936576119366118ac565b50601f01601f191660200190565b600082601f83011261195557600080fd5b81356119686119638261191c565b6118eb565b81815284602083860101111561197d57600080fd5b816020850160208301376000918101602001919091529392505050565b600080604083850312156119ad57600080fd5b823567ffffffffffffffff8111156119c457600080fd5b6119d085828601611944565b95602094909401359450505050565b6000602082840312156119f157600080fd5b813567ffffffffffffffff811115611a0857600080fd5b611a1484828501611944565b949350505050565b60005b83811015611a37578181015183820152602001611a1f565b50506000910152565b60008151808452611a58816020860160208601611a1c565b601f01601f19169290920160200192915050565b60c081526000611a7f60c0830189611a40565b6001600160a01b03978816602084015260408301969096525060608101939093529316608082015291151560a090920191909152919050565b600080600060608486031215611acd57600080fd5b833567ffffffffffffffff811115611ae457600080fd5b611af086828701611944565b9660208601359650604090950135949350505050565b60008060408385031215611b1957600080fd5b8235611b248161182f565b946020939093013593505050565b6001600160a01b038916815261010060208201819052600090611b578382018b611a40565b604084019990995250506060810195909552608085019390935260a0840191909152151560c0830152151560e09091015292915050565b801515811461101d57600080fd5b60008060008060808587031215611bb257600080fd5b843567ffffffffffffffff811115611bc957600080fd5b611bd587828801611944565b94505060208501359250604085013591506060850135611bf481611b8e565b939692955090935050565b60008251611c11818460208701611a1c565b9190910192915050565b600181811c90821680611c2f57607f821691505b602082108103611c4f57634e487b7160e01b600052602260045260246000fd5b50919050565b634e487b7160e01b600052601160045260246000fd5b8082028115828204841417611c8257611c82611c55565b92915050565b600082611ca557634e487b7160e01b600052601260045260246000fd5b500490565b80820180821115611c8257611c82611c55565b6bffffffffffffffffffffffff198660601b16815260008551611ce7816014850160208a01611a1c565b6014920191820194909452603481019290925260548201526074019392505050565b601f821115611d5357600081815260208120601f850160051c81016020861015611d305750805b601f850160051c820191505b81811015611d4f57828155600101611d3c565b5050505b505050565b815167ffffffffffffffff811115611d7257611d726118ac565b611d8681611d808454611c1b565b84611d09565b602080601f831160018114611dbb5760008415611da35750858301515b600019600386901b1c1916600185901b178555611d4f565b600085815260208120601f198616915b82811015611dea57888601518255948401946001909101908401611dcb565b5085821015611e085787850151600019600388901b60f8161c191681555b5050505050600190811b01905550565b81810381811115611c8257611c82611c55565b6020815260006118616020830184611a40565b600082601f830112611e4f57600080fd5b8151611e5d6119638261191c565b818152846020838601011115611e7257600080fd5b611a14826020830160208701611a1c565b8051611e8e81611b8e565b919050565b600060208284031215611ea557600080fd5b815167ffffffffffffffff80821115611ebd57600080fd5b9083019060c08286031215611ed157600080fd5b611ed96118c2565b8251611ee48161182f565b81526020830151611ef48161182f565b60208201526040830151611f078161182f565b6040820152606083015182811115611f1e57600080fd5b611f2a87828601611e3e565b60608301525060808301516080820152611f4660a08401611e83565b60a082015295945050505050565b600060208284031215611f6657600080fd5b81516118618161182f565b6000808354611f7f81611c1b565b60018281168015611f975760018114611fac57611fdb565b60ff1984168752821515830287019450611fdb565b8760005260208060002060005b85811015611fd25781548a820152908401908201611fb9565b50505082870194505b50929695505050505050565b600060208284031215611ff957600080fd5b505191905056fea26469706673582212201ccd98df87b7016891aed2fa6e4a25602378c34227ec842b3f1acfafe41c0a4064736f6c63430008110033",
  "linkReferences": {},
  "deployedLinkReferences": {}
}