{
  "_format": "hh-sol-artifact-1",
  "contractName": "SimplePropertyToken",
  "sourceName": "contracts/SimplePropertyToken.sol",
  "abi": [
    {
      "inputs": [
        {
          "internalType": "string",
          "name": "_name",
          "type": "string"
        },
        {
          "internalType": "string",
          "name": "_symbol",
          "type": "string"
        },
        {
          "components": [
            {
              "internalType": "string",
              "name": "propertyId",
              "type": "string"
            },
            {
              "internalType": "string",
              "name": "propertyAddress",
              "type": "string"
            },
            {
              "internalType": "string",
              "name": "cadastralRegistry",
              "type": "string"
            },
            {
              "internalType": "uint256",
              "name": "totalValue",
              "type": "uint256"
            },
            {
              "internalType": "uint256",
              "name": "totalTokens",
              "type": "uint256"
            },
            {
              "internalType": "bool",
              "name": "isActive",
              "type": "bool"
            },
            {
              "internalType": "string",
              "name": "documentHash",
              "type": "string"
            }
          ],
          "internalType": "struct SimplePropertyToken.PropertyDetails",
          "name": "_propertyDetails",
          "type": "tuple"
        }
      ],
      "stateMutability": "nonpayable",
      "type": "constructor"
    },
    {
      "anonymous": false,
      "inputs": [
        {
          "indexed": true,
          "internalType": "address",
          "name": "owner",
          "type": "address"
        },
        {
          "indexed": true,
          "internalType": "address",
          "name": "spender",
          "type": "address"
        },
        {
          "indexed": false,
          "internalType": "uint256",
          "name": "value",
          "type": "uint256"
        }
      ],
      "name": "Approval",
      "type": "event"
    },
    {
      "anonymous": false,
      "inputs": [
        {
          "indexed": true,
          "internalType": "address",
          "name": "investor",
          "type": "address"
        },
        {
          "indexed": false,
          "internalType": "bool",
          "name": "status",
          "type": "bool"
        }
      ],
      "name": "KYCUpdated",
      "type": "event"
    },
    {
      "anonymous": false,
      "inputs": [
        {
          "indexed": true,
          "internalType": "address",
          "name": "previousOwner",
          "type": "address"
        },
        {
          "indexed": true,
          "internalType": "address",
          "name": "newOwner",
          "type": "address"
        }
      ],
      "name": "OwnershipTransferred",
      "type": "event"
    },
    {
      "anonymous": false,
      "inputs": [
        {
          "indexed": true,
          "internalType": "string",
          "name": "propertyId",
          "type": "string"
        },
        {
          "indexed": false,
          "internalType": "uint256",
          "name": "totalValue",
          "type": "uint256"
        },
        {
          "indexed": false,
          "internalType": "uint256",
          "name": "totalTokens",
          "type": "uint256"
        }
      ],
      "name": "PropertyTokenized",
      "type": "event"
    },
    {
      "anonymous": false,
      "inputs": [
        {
          "indexed": true,
          "internalType": "address",
          "name": "investor",
          "type": "address"
        },
        {
          "indexed": false,
          "internalType": "uint256",
          "name": "amount",
          "type": "uint256"
        },
        {
          "indexed": false,
          "internalType": "uint256",
          "name": "price",
          "type": "uint256"
        }
      ],
      "name": "SharesPurchased",
      "type": "event"
    },
    {
      "anonymous": false,
      "inputs": [
        {
          "indexed": true,
          "internalType": "address",
          "name": "from",
          "type": "address"
        },
        {
          "indexed": true,
          "internalType": "address",
          "name": "to",
          "type": "address"
        },
        {
          "indexed": false,
          "internalType": "uint256",
          "name": "value",
          "type": "uint256"
        }
      ],
      "name": "Transfer",
      "type": "event"
    },
    {
      "inputs": [
        {
          "internalType": "address",
          "name": "owner",
          "type": "address"
        },
        {
          "internalType": "address",
          "name": "spender",
          "type": "address"
        }
      ],
      "name": "allowance",
      "outputs": [
        {
          "internalType": "uint256",
          "name": "",
          "type": "uint256"
        }
      ],
      "stateMutability": "view",
      "type": "function"
    },
    {
      "inputs": [
        {
          "internalType": "address",
          "name": "spender",
          "type": "address"
        },
        {
          "internalType": "uint256",
          "name": "amount",
          "type": "uint256"
        }
      ],
      "name": "approve",
      "outputs": [
        {
          "internalType": "bool",
          "name": "",
          "type": "bool"
        }
      ],
      "stateMutability": "nonpayable",
      "type": "function"
    },
    {
      "inputs": [
        {
          "internalType": "address",
          "name": "account",
          "type": "address"
        }
      ],
      "name": "balanceOf",
      "outputs": [
        {
          "internalType": "uint256",
          "name": "",
          "type": "uint256"
        }
      ],
      "stateMutability": "view",
      "type": "function"
    },
    {
      "inputs": [],
      "name": "decimals",
      "outputs": [
        {
          "internalType": "uint8",
          "name": "",
          "type": "uint8"
        }
      ],
      "stateMutability": "view",
      "type": "function"
    },
    {
      "inputs": [
        {
          "internalType": "address",
          "name": "spender",
          "type": "address"
        },
        {
          "internalType": "uint256",
          "name": "subtractedValue",
          "type": "uint256"
        }
      ],
      "name": "decreaseAllowance",
      "outputs": [
        {
          "internalType": "bool",
          "name": "",
          "type": "bool"
        }
      ],
      "stateMutability": "nonpayable",
      "type": "function"
    },
    {
      "inputs": [],
      "name": "getAvailableTokens",
      "outputs": [
        {
          "internalType": "uint256",
          "name": "",
          "type": "uint256"
        }
      ],
      "stateMutability": "view",
      "type": "function"
    },
    {
      "inputs": [
        {
          "internalType": "address",
          "name": "investor",
          "type": "address"
        }
      ],
      "name": "getInvestorShares",
      "outputs": [
        {
          "internalType": "uint256",
          "name": "",
          "type": "uint256"
        }
      ],
      "stateMutability": "view",
      "type": "function"
    },
    {
      "inputs": [],
      "name": "getPropertyValue",
      "outputs": [
        {
          "internalType": "uint256",
          "name": "",
          "type": "uint256"
        }
      ],
      "stateMutability": "view",
      "type": "function"
    },
    {
      "inputs": [
        {
          "internalType": "address",
          "name": "spender",
          "type": "address"
        },
        {
          "internalType": "uint256",
          "name": "addedValue",
          "type": "uint256"
        }
      ],
      "name": "increaseAllowance",
      "outputs": [
        {
          "internalType": "bool",
          "name": "",
          "type": "bool"
        }
      ],
      "stateMutability": "nonpayable",
      "type": "function"
    },
    {
      "inputs": [
        {
          "internalType": "address",
          "name": "",
          "type": "address"
        }
      ],
      "name": "investorShares",
      "outputs": [
        {
          "internalType": "uint256",
          "name": "",
          "type": "uint256"
        }
      ],
      "stateMutability": "view",
      "type": "function"
    },
    {
      "inputs": [
        {
          "internalType": "address",
          "name": "",
          "type": "address"
        }
      ],
      "name": "kycVerified",
      "outputs": [
        {
          "internalType": "bool",
          "name": "",
          "type": "bool"
        }
      ],
      "stateMutability": "view",
      "type": "function"
    },
    {
      "inputs": [],
      "name": "name",
      "outputs": [
        {
          "internalType": "string",
          "name": "",
          "type": "string"
        }
      ],
      "stateMutability": "view",
      "type": "function"
    },
    {
      "inputs": [],
      "name": "owner",
      "outputs": [
        {
          "internalType": "address",
          "name": "",
          "type": "address"
        }
      ],
      "stateMutability": "view",
      "type": "function"
    },
    {
      "inputs": [],
      "name": "propertyDetails",
      "outputs": [
        {
          "internalType": "string",
          "name": "propertyId",
          "type": "string"
        },
        {
          "internalType": "string",
          "name": "propertyAddress",
          "type": "string"
        },
        {
          "internalType": "string",
          "name": "cadastralRegistry",
          "type": "string"
        },
        {
          "internalType": "uint256",
          "name": "totalValue",
          "type": "uint256"
        },
        {
          "internalType": "uint256",
          "name": "totalTokens",
          "type": "uint256"
        },
        {
          "internalType": "bool",
          "name": "isActive",
          "type": "bool"
        },
        {
          "internalType": "string",
          "name": "documentHash",
          "type": "string"
        }
      ],
      "stateMutability": "view",
      "type": "function"
    },
    {
      "inputs": [
        {
          "internalType": "address",
          "name": "investor",
          "type": "address"
        },
        {
          "internalType": "uint256",
          "name": "amount",
          "type": "uint256"
        }
      ],
      "name": "purchaseShares",
      "outputs": [],
      "stateMutability": "nonpayable",
      "type": "function"
    },
    {
      "inputs": [],
      "name": "renounceOwnership",
      "outputs": [],
      "stateMutability": "nonpayable",
      "type": "function"
    },
    {
      "inputs": [],
      "name": "symbol",
      "outputs": [
        {
          "internalType": "string",
          "name": "",
          "type": "string"
        }
      ],
      "stateMutability": "view",
      "type": "function"
    },
    {
      "inputs": [],
      "name": "totalSupply",
      "outputs": [
        {
          "internalType": "uint256",
          "name": "",
          "type": "uint256"
        }
      ],
      "stateMutability": "view",
      "type": "function"
    },
    {
      "inputs": [
        {
          "internalType": "address",
          "name": "to",
          "type": "address"
        },
        {
          "internalType": "uint256",
          "name": "amount",
          "type": "uint256"
        }
      ],
      "name": "transfer",
      "outputs": [
        {
          "internalType": "bool",
          "name": "",
          "type": "bool"
        }
      ],
      "stateMutability": "nonpayable",
      "type": "function"
    },
    {
      "inputs": [
        {
          "internalType": "address",
          "name": "from",
          "type": "address"
        },
        {
          "internalType": "address",
          "name": "to",
          "type": "address"
        },
        {
          "internalType": "uint256",
          "name": "amount",
          "type": "uint256"
        }
      ],
      "name": "transferFrom",
      "outputs": [
        {
          "internalType": "bool",
          "name": "",
          "type": "bool"
        }
      ],
      "stateMutability": "nonpayable",
      "type": "function"
    },
    {
      "inputs": [
        {
          "internalType": "address",
          "name": "newOwner",
          "type": "address"
        }
      ],
      "name": "transferOwnership",
      "outputs": [],
      "stateMutability": "nonpayable",
      "type": "function"
    },
    {
      "inputs": [
        {
          "internalType": "address",
          "name": "investor",
          "type": "address"
        },
        {
          "internalType": "bool",
          "name": "status",
          "type": "bool"
        }
      ],
      "name": "updateKYC",
      "outputs": [],
      "stateMutability": "nonpayable",
      "type": "function"
    },
    {
      "inputs": [
        {
          "internalType": "bool",
          "name": "_isActive",
          "type": "bool"
        }
      ],
      "name": "updatePropertyStatus",
      "outputs": [],
      "stateMutability": "nonpayable",
      "type": "function"
    }
  ],
  "bytecode": "0x60806040523480156200001157600080fd5b50604051620018a2380380620018a28339810160408190526200003491620002be565b82826003620000448382620004ae565b506004620000538282620004ae565b505050620000706200006a6200015a60201b60201c565b6200015e565b805181906006908190620000859082620004ae565b50602082015160018201906200009c9082620004ae565b5060408201516002820190620000b39082620004ae565b50606082015160038201556080820151600482015560a082015160058201805460ff191691151591909117905560c08201516006820190620000f69082620004ae565b505081516040516200010992506200057a565b60408051918290038220606084015160808501519084526020840152917f8efe95fc152bb2f1266b84d96cd58606e7d776a34bcaa87d400baa6143216370910160405180910390a250505062000598565b3390565b600580546001600160a01b038381166001600160a01b0319831681179093556040519116919082907f8be0079c531659141344cd1fd0a4f28419497f9722a3daafe3b4186f6b6457e090600090a35050565b634e487b7160e01b600052604160045260246000fd5b60405160e081016001600160401b0381118282101715620001eb57620001eb620001b0565b60405290565b60005b838110156200020e578181015183820152602001620001f4565b50506000910152565b600082601f8301126200022957600080fd5b81516001600160401b0380821115620002465762000246620001b0565b604051601f8301601f19908116603f01168101908282118183101715620002715762000271620001b0565b816040528381528660208588010111156200028b57600080fd5b6200029e846020830160208901620001f1565b9695505050505050565b80518015158114620002b957600080fd5b919050565b600080600060608486031215620002d457600080fd5b83516001600160401b0380821115620002ec57600080fd5b620002fa8783880162000217565b945060208601519150808211156200031157600080fd5b6200031f8783880162000217565b935060408601519150808211156200033657600080fd5b9085019060e082880312156200034b57600080fd5b62000355620001c6565b8251828111156200036557600080fd5b620003738982860162000217565b8252506020830151828111156200038957600080fd5b620003978982860162000217565b602083015250604083015182811115620003b057600080fd5b620003be8982860162000217565b6040830152506060830151606082015260808301516080820152620003e660a08401620002a8565b60a082015260c083015182811115620003fe57600080fd5b6200040c8982860162000217565b60c0830152508093505050509250925092565b600181811c908216806200043457607f821691505b6020821081036200045557634e487b7160e01b600052602260045260246000fd5b50919050565b601f821115620004a957600081815260208120601f850160051c81016020861015620004845750805b601f850160051c820191505b81811015620004a55782815560010162000490565b5050505b505050565b81516001600160401b03811115620004ca57620004ca620001b0565b620004e281620004db84546200041f565b846200045b565b602080601f8311600181146200051a5760008415620005015750858301515b600019600386901b1c1916600185901b178555620004a5565b600085815260208120601f198616915b828110156200054b578886015182559484019460019091019084016200052a565b50858210156200056a5787850151600019600388901b60f8161c191681555b5050505050600190811b01905550565b600082516200058e818460208701620001f1565b9190910192915050565b6112fa80620005a86000396000f3fe608060405234801561001057600080fd5b506004361061014c5760003560e01c806370a08231116100c3578063a9059cbb1161007c578063a9059cbb146102e2578063d3690b6a146102f5578063dd62ed3e14610315578063e35568cb14610328578063e63abb6a14610330578063f2fde38b1461033857600080fd5b806370a0823114610258578063715018a6146102815780638da5cb5b1461028957806395d89b41146102a4578063a457c2d7146102ac578063a5410a66146102bf57600080fd5b806328ee551b1161011557806328ee551b146101d2578063300b53c2146101e7578063313ce567146101fa578063342d6d3214610209578063395093511461021c57806349d4f4291461022f57600080fd5b80627dc3721461015157806306fdde0314610175578063095ea7b31461018a57806318160ddd146101ad57806323b872dd146101bf575b600080fd5b61015961034b565b60405161016c979695949392919061106e565b60405180910390f35b61017d6105a2565b60405161016c91906110dd565b61019d61019836600461110c565b610634565b604051901515815260200161016c565b6002545b60405190815260200161016c565b61019d6101cd366004611136565b61064e565b6101e56101e0366004611182565b6106ce565b005b6101e56101f536600461119d565b6106e9565b6040516012815260200161016c565b6101e561021736600461110c565b610751565b61019d61022a36600461110c565b61094f565b6101b161023d3660046111d0565b6001600160a01b03166000908152600d602052604090205490565b6101b16102663660046111d0565b6001600160a01b031660009081526020819052604090205490565b6101e5610971565b6005546040516001600160a01b03909116815260200161016c565b61017d610985565b61019d6102ba36600461110c565b610994565b61019d6102cd3660046111d0565b600e6020526000908152604090205460ff1681565b61019d6102f036600461110c565b610a1a565b6101b16103033660046111d0565b600d6020526000908152604090205481565b6101b16103233660046111eb565b610a93565b6101b1610abe565b6009546101b1565b6101e56103463660046111d0565b610adb565b60068054819061035a90611215565b80601f016020809104026020016040519081016040528092919081815260200182805461038690611215565b80156103d35780601f106103a8576101008083540402835291602001916103d3565b820191906000526020600020905b8154815290600101906020018083116103b657829003601f168201915b5050505050908060010180546103e890611215565b80601f016020809104026020016040519081016040528092919081815260200182805461041490611215565b80156104615780601f1061043657610100808354040283529160200191610461565b820191906000526020600020905b81548152906001019060200180831161044457829003601f168201915b50505050509080600201805461047690611215565b80601f01602080910402602001604051908101604052809291908181526020018280546104a290611215565b80156104ef5780601f106104c4576101008083540402835291602001916104ef565b820191906000526020600020905b8154815290600101906020018083116104d257829003601f168201915b5050506003840154600485015460058601546006870180549697939692955060ff90911693509061051f90611215565b80601f016020809104026020016040519081016040528092919081815260200182805461054b90611215565b80156105985780601f1061056d57610100808354040283529160200191610598565b820191906000526020600020905b81548152906001019060200180831161057b57829003601f168201915b5050505050905087565b6060600380546105b190611215565b80601f01602080910402602001604051908101604052809291908181526020018280546105dd90611215565b801561062a5780601f106105ff5761010080835404028352916020019161062a565b820191906000526020600020905b81548152906001019060200180831161060d57829003601f168201915b5050505050905090565b600033610642818585610b54565b60019150505b92915050565b6001600160a01b0382166000908152600e602052604081205460ff166106bb5760405162461bcd60e51b815260206004820152601a60248201527f526563697069656e74206e6f74204b594320766572696669656400000000000060448201526064015b60405180910390fd5b6106c6848484610c78565b949350505050565b6106d6610c91565b600b805460ff1916911515919091179055565b6106f1610c91565b6001600160a01b0382166000818152600e6020908152604091829020805460ff191685151590811790915591519182527f2bd9ea086356b3e60459594f10458ff8dae3d16fef711bb3dd479a06f745a24691015b60405180910390a25050565b610759610c91565b600b5460ff166107a45760405162461bcd60e51b815260206004820152601660248201527550726f7065727479206973206e6f742061637469766560501b60448201526064016106b2565b600081116107f45760405162461bcd60e51b815260206004820152601d60248201527f416d6f756e74206d7573742062652067726561746572207468616e203000000060448201526064016106b2565b600a548161080160025490565b61080b9190611265565b11156108505760405162461bcd60e51b81526020600482015260146024820152734578636565647320746f74616c20746f6b656e7360601b60448201526064016106b2565b6001600160a01b0382166000908152600e602052604090205460ff166108b85760405162461bcd60e51b815260206004820152601960248201527f496e766573746f72206e6f74204b59432076657269666965640000000000000060448201526064016106b2565b6108c28282610ceb565b6001600160a01b0382166000908152600d6020526040812080548392906108ea908490611265565b9091555050600a546009546001600160a01b038416917f630b54f21d1c5ae41c4633ad96e8c15ce15665365eded6a38476ffa71c8ace6c91849190610930908390611278565b61093a919061128f565b60408051928352602083019190915201610745565b6000336106428185856109628383610a93565b61096c9190611265565b610b54565b610979610c91565b6109836000610daa565b565b6060600480546105b190611215565b600033816109a28286610a93565b905083811015610a025760405162461bcd60e51b815260206004820152602560248201527f45524332303a2064656372656173656420616c6c6f77616e63652062656c6f77604482015264207a65726f60d81b60648201526084016106b2565b610a0f8286868403610b54565b506001949350505050565b6001600160a01b0382166000908152600e602052604081205460ff16610a825760405162461bcd60e51b815260206004820152601a60248201527f526563697069656e74206e6f74204b594320766572696669656400000000000060448201526064016106b2565b610a8c8383610dfc565b9392505050565b6001600160a01b03918216600090815260016020908152604080832093909416825291909152205490565b6000610ac960025490565b600a54610ad691906112b1565b905090565b610ae3610c91565b6001600160a01b038116610b485760405162461bcd60e51b815260206004820152602660248201527f4f776e61626c653a206e6577206f776e657220697320746865207a65726f206160448201526564647265737360d01b60648201526084016106b2565b610b5181610daa565b50565b6001600160a01b038316610bb65760405162461bcd60e51b8152602060048201526024808201527f45524332303a20617070726f76652066726f6d20746865207a65726f206164646044820152637265737360e01b60648201526084016106b2565b6001600160a01b038216610c175760405162461bcd60e51b815260206004820152602260248201527f45524332303a20617070726f766520746f20746865207a65726f206164647265604482015261737360f01b60648201526084016106b2565b6001600160a01b0383811660008181526001602090815260408083209487168084529482529182902085905590518481527f8c5be1e5ebec7d5bd14f71427d1e84f3dd0314c0f7b2291e5b200ac8c7c3b925910160405180910390a3505050565b600033610c86858285610e0a565b610a0f858585610e84565b6005546001600160a01b031633146109835760405162461bcd60e51b815260206004820181905260248201527f4f776e61626c653a2063616c6c6572206973206e6f7420746865206f776e657260448201526064016106b2565b6001600160a01b038216610d415760405162461bcd60e51b815260206004820152601f60248201527f45524332303a206d696e7420746f20746865207a65726f20616464726573730060448201526064016106b2565b8060026000828254610d539190611265565b90915550506001600160a01b038216600081815260208181526040808320805486019055518481527fddf252ad1be2c89b69c2b068fc378daa952ba7f163c4a11628f55a4df523b3ef910160405180910390a35050565b600580546001600160a01b038381166001600160a01b0319831681179093556040519116919082907f8be0079c531659141344cd1fd0a4f28419497f9722a3daafe3b4186f6b6457e090600090a35050565b600033610642818585610e84565b6000610e168484610a93565b90506000198114610e7e5781811015610e715760405162461bcd60e51b815260206004820152601d60248201527f45524332303a20696e73756666696369656e7420616c6c6f77616e636500000060448201526064016106b2565b610e7e8484848403610b54565b50505050565b6001600160a01b038316610ee85760405162461bcd60e51b815260206004820152602560248201527f45524332303a207472616e736665722066726f6d20746865207a65726f206164604482015264647265737360d81b60648201526084016106b2565b6001600160a01b038216610f4a5760405162461bcd60e51b815260206004820152602360248201527f45524332303a207472616e7366657220746f20746865207a65726f206164647260448201526265737360e81b60648201526084016106b2565b6001600160a01b03831660009081526020819052604090205481811015610fc25760405162461bcd60e51b815260206004820152602660248201527f45524332303a207472616e7366657220616d6f756e7420657863656564732062604482015265616c616e636560d01b60648201526084016106b2565b6001600160a01b03848116600081815260208181526040808320878703905593871680835291849020805487019055925185815290927fddf252ad1be2c89b69c2b068fc378daa952ba7f163c4a11628f55a4df523b3ef910160405180910390a3610e7e565b6000815180845260005b8181101561104e57602081850181015186830182015201611032565b506000602082860101526020601f19601f83011685010191505092915050565b60e08152600061108160e083018a611028565b8281036020840152611093818a611028565b905082810360408401526110a78189611028565b905086606084015285608084015284151560a084015282810360c08401526110cf8185611028565b9a9950505050505050505050565b602081526000610a8c6020830184611028565b80356001600160a01b038116811461110757600080fd5b919050565b6000806040838503121561111f57600080fd5b611128836110f0565b946020939093013593505050565b60008060006060848603121561114b57600080fd5b611154846110f0565b9250611162602085016110f0565b9150604084013590509250925092565b8035801515811461110757600080fd5b60006020828403121561119457600080fd5b610a8c82611172565b600080604083850312156111b057600080fd5b6111b9836110f0565b91506111c760208401611172565b90509250929050565b6000602082840312156111e257600080fd5b610a8c826110f0565b600080604083850312156111fe57600080fd5b611207836110f0565b91506111c7602084016110f0565b600181811c9082168061122957607f821691505b60208210810361124957634e487b7160e01b600052602260045260246000fd5b50919050565b634e487b7160e01b600052601160045260246000fd5b808201808211156106485761064861124f565b80820281158282048414176106485761064861124f565b6000826112ac57634e487b7160e01b600052601260045260246000fd5b500490565b818103818111156106485761064861124f56fea264697066735822122047a7e7b32d51799a760a43317dde8417a5ba1e554ac3529044fcbc4e1a740b8c64736f6c63430008110033",
  "linkReferences": {},
  "deployedLinkReferences": {}
}