{
  "_format": "hh-sol-artifact-1",
  "contractName": "PropertyTokenFactory",
  "sourceName": "contracts/PropertyTokenFactory.sol",
  "abi": [
    {
      "inputs": [
        {
          "internalType": "address",
          "name": "_trustedIssuersRegistry",
          "type": "address"
        },
        {
          "internalType": "address",
          "name": "_claimTopicsRegistry",
          "type": "address"
        }
      ],
      "stateMutability": "nonpayable",
      "type": "constructor"
    },
    {
      "anonymous": false,
      "inputs": [
        {
          "indexed": true,
          "internalType": "address",
          "name": "previousOwner",
          "type": "address"
        },
        {
          "indexed": true,
          "internalType": "address",
          "name": "newOwner",
          "type": "address"
        }
      ],
      "name": "OwnershipTransferred",
      "type": "event"
    },
    {
      "anonymous": false,
      "inputs": [
        {
          "indexed": true,
          "internalType": "string",
          "name": "propertyId",
          "type": "string"
        },
        {
          "indexed": true,
          "internalType": "address",
          "name": "tokenAddress",
          "type": "address"
        },
        {
          "indexed": true,
          "internalType": "address",
          "name": "issuer",
          "type": "address"
        },
        {
          "indexed": false,
          "internalType": "string",
          "name": "name",
          "type": "string"
        },
        {
          "indexed": false,
          "internalType": "string",
          "name": "symbol",
          "type": "string"
        }
      ],
      "name": "PropertyTokenCreated",
      "type": "event"
    },
    {
      "anonymous": false,
      "inputs": [
        {
          "indexed": true,
          "internalType": "string",
          "name": "propertyId",
          "type": "string"
        },
        {
          "indexed": false,
          "internalType": "bool",
          "name": "isActive",
          "type": "bool"
        }
      ],
      "name": "TokenStatusUpdated",
      "type": "event"
    },
    {
      "inputs": [
        {
          "internalType": "uint256",
          "name": "",
          "type": "uint256"
        }
      ],
      "name": "allPropertyIds",
      "outputs": [
        {
          "internalType": "string",
          "name": "",
          "type": "string"
        }
      ],
      "stateMutability": "view",
      "type": "function"
    },
    {
      "inputs": [],
      "name": "claimTopicsRegistry",
      "outputs": [
        {
          "internalType": "address",
          "name": "",
          "type": "address"
        }
      ],
      "stateMutability": "view",
      "type": "function"
    },
    {
      "inputs": [
        {
          "internalType": "string",
          "name": "propertyId",
          "type": "string"
        },
        {
          "internalType": "string",
          "name": "name",
          "type": "string"
        },
        {
          "internalType": "string",
          "name": "symbol",
          "type": "string"
        },
        {
          "components": [
            {
              "internalType": "string",
              "name": "propertyId",
              "type": "string"
            },
            {
              "internalType": "string",
              "name": "propertyAddress",
              "type": "string"
            },
            {
              "internalType": "string",
              "name": "cadastralRegistry",
              "type": "string"
            },
            {
              "internalType": "uint256",
              "name": "totalValue",
              "type": "uint256"
            },
            {
              "internalType": "uint256",
              "name": "totalTokens",
              "type": "uint256"
            },
            {
              "internalType": "bool",
              "name": "isActive",
              "type": "bool"
            },
            {
              "internalType": "string",
              "name": "documentHash",
              "type": "string"
            }
          ],
          "internalType": "struct PropertyToken.PropertyDetails",
          "name": "propertyDetails",
          "type": "tuple"
        },
        {
          "internalType": "address",
          "name": "onchainID",
          "type": "address"
        }
      ],
      "name": "createPropertyToken",
      "outputs": [
        {
          "internalType": "address",
          "name": "",
          "type": "address"
        }
      ],
      "stateMutability": "nonpayable",
      "type": "function"
    },
    {
      "inputs": [
        {
          "internalType": "string",
          "name": "",
          "type": "string"
        }
      ],
      "name": "deployedTokens",
      "outputs": [
        {
          "internalType": "address",
          "name": "tokenAddress",
          "type": "address"
        },
        {
          "internalType": "address",
          "name": "identityRegistry",
          "type": "address"
        },
        {
          "internalType": "address",
          "name": "compliance",
          "type": "address"
        },
        {
          "internalType": "string",
          "name": "propertyId",
          "type": "string"
        },
        {
          "internalType": "uint256",
          "name": "deploymentTime",
          "type": "uint256"
        },
        {
          "internalType": "bool",
          "name": "isActive",
          "type": "bool"
        }
      ],
      "stateMutability": "view",
      "type": "function"
    },
    {
      "inputs": [],
      "name": "getActiveTokensCount",
      "outputs": [
        {
          "internalType": "uint256",
          "name": "",
          "type": "uint256"
        }
      ],
      "stateMutability": "view",
      "type": "function"
    },
    {
      "inputs": [],
      "name": "getAllPropertyIds",
      "outputs": [
        {
          "internalType": "string[]",
          "name": "",
          "type": "string[]"
        }
      ],
      "stateMutability": "view",
      "type": "function"
    },
    {
      "inputs": [
        {
          "internalType": "address",
          "name": "issuer",
          "type": "address"
        }
      ],
      "name": "getIssuerTokens",
      "outputs": [
        {
          "internalType": "string[]",
          "name": "",
          "type": "string[]"
        }
      ],
      "stateMutability": "view",
      "type": "function"
    },
    {
      "inputs": [
        {
          "internalType": "string",
          "name": "propertyId",
          "type": "string"
        }
      ],
      "name": "getTokenDeployment",
      "outputs": [
        {
          "components": [
            {
              "internalType": "address",
              "name": "tokenAddress",
              "type": "address"
            },
            {
              "internalType": "address",
              "name": "identityRegistry",
              "type": "address"
            },
            {
              "internalType": "address",
              "name": "compliance",
              "type": "address"
            },
            {
              "internalType": "string",
              "name": "propertyId",
              "type": "string"
            },
            {
              "internalType": "uint256",
              "name": "deploymentTime",
              "type": "uint256"
            },
            {
              "internalType": "bool",
              "name": "isActive",
              "type": "bool"
            }
          ],
          "internalType": "struct PropertyTokenFactory.TokenDeployment",
          "name": "",
          "type": "tuple"
        }
      ],
      "stateMutability": "view",
      "type": "function"
    },
    {
      "inputs": [
        {
          "internalType": "address",
          "name": "",
          "type": "address"
        },
        {
          "internalType": "uint256",
          "name": "",
          "type": "uint256"
        }
      ],
      "name": "issuerTokens",
      "outputs": [
        {
          "internalType": "string",
          "name": "",
          "type": "string"
        }
      ],
      "stateMutability": "view",
      "type": "function"
    },
    {
      "inputs": [],
      "name": "owner",
      "outputs": [
        {
          "internalType": "address",
          "name": "",
          "type": "address"
        }
      ],
      "stateMutability": "view",
      "type": "function"
    },
    {
      "inputs": [],
      "name": "renounceOwnership",
      "outputs": [],
      "stateMutability": "nonpayable",
      "type": "function"
    },
    {
      "inputs": [
        {
          "internalType": "address",
          "name": "newOwner",
          "type": "address"
        }
      ],
      "name": "transferOwnership",
      "outputs": [],
      "stateMutability": "nonpayable",
      "type": "function"
    },
    {
      "inputs": [],
      "name": "trustedIssuersRegistry",
      "outputs": [
        {
          "internalType": "address",
          "name": "",
          "type": "address"
        }
      ],
      "stateMutability": "view",
      "type": "function"
    },
    {
      "inputs": [
        {
          "internalType": "string",
          "name": "propertyId",
          "type": "string"
        },
        {
          "internalType": "bool",
          "name": "isActive",
          "type": "bool"
        }
      ],
      "name": "updateTokenStatus",
      "outputs": [],
      "stateMutability": "nonpayable",
      "type": "function"
    }
  ],
  "bytecode": "0x60806040523480156200001157600080fd5b5060405162008e8f38038062008e8f8339810160408190526200003491620000de565b6200003f3362000071565b600380546001600160a01b039384166001600160a01b0319918216179091556004805492909316911617905562000116565b600080546001600160a01b038381166001600160a01b0319831681178455604051919092169283917f8be0079c531659141344cd1fd0a4f28419497f9722a3daafe3b4186f6b6457e09190a35050565b80516001600160a01b0381168114620000d957600080fd5b919050565b60008060408385031215620000f257600080fd5b620000fd83620000c1565b91506200010d60208401620000c1565b90509250929050565b618d6980620001266000396000f3fe608060405234801561001057600080fd5b50600436106100ea5760003560e01c806366484fcb1161008c578063918a1ba811610066578063918a1ba8146101f0578063cffcc88614610203578063f2fde38b14610216578063fb703a7b1461022957600080fd5b806366484fcb146101b7578063715018a6146101d75780638da5cb5b146101df57600080fd5b806316dfb8fd116100c857806316dfb8fd146101545780634efcaca51461016a5780634ff69e831461018a57806352f2c3e01461019257600080fd5b806308761324146100ef5780630fc9408e1461011f57806316a739dd1461013f575b600080fd5b600454610102906001600160a01b031681565b6040516001600160a01b0390911681526020015b60405180910390f35b61013261012d366004611133565b61023c565b60405161011691906111a7565b61015261014d3660046112e5565b61032b565b005b61015c61052d565b604051908152602001610116565b61017d610178366004611333565b6105a9565b604051610116919061134c565b610132610655565b6101a56101a036600461135f565b61072e565b6040516101169695949392919061139c565b6101ca6101c536600461135f565b61080e565b60405161011691906113ea565b610152610947565b6000546001600160a01b0316610102565b6101026101fe366004611454565b61095b565b61017d6102113660046115d2565b610f8c565b610152610224366004611133565b610fc4565b600354610102906001600160a01b031681565b6001600160a01b0381166000908152600260209081526040808320805482518185028101850190935280835260609492939192909184015b82821015610320578382906000526020600020018054610293906115fe565b80601f01602080910402602001604051908101604052809291908181526020018280546102bf906115fe565b801561030c5780601f106102e15761010080835404028352916020019161030c565b820191906000526020600020905b8154815290600101906020018083116102ef57829003601f168201915b505050505081526020019060010190610274565b505050509050919050565b600060018360405161033d9190611632565b90815260405190819003602001902080549091506001600160a01b03166103a25760405162461bcd60e51b8152602060048201526014602482015273151bdad95b88191bd95cc81b9bdd08195e1a5cdd60621b60448201526064015b60405180910390fd5b805460408051638da5cb5b60e01b815290516001600160a01b039092169133918391638da5cb5b916004808201926020929091908290030181865afa1580156103ef573d6000803e3d6000fd5b505050506040513d601f19601f82011682018060405250810190610413919061164e565b6001600160a01b0316148061043257506000546001600160a01b031633145b61046f5760405162461bcd60e51b815260206004820152600e60248201526d139bdd08185d5d1a1bdc9a5e995960921b6044820152606401610399565b60058201805460ff19168415159081179091556040516328ee551b60e01b815260048101919091526001600160a01b038216906328ee551b90602401600060405180830381600087803b1580156104c557600080fd5b505af11580156104d9573d6000803e3d6000fd5b50505050836040516104eb9190611632565b6040519081900381208415158252907f024f9abd717d13a072daf0f7c90120917659b016febd473b8c7cc42c068aa83b9060200160405180910390a250505050565b600080805b6005548110156105a3576001600582815481106105515761055161166b565b906000526020600020016040516105689190611681565b9081526040519081900360200190206005015460ff1615610591578161058d816116f7565b9250505b8061059b816116f7565b915050610532565b50919050565b600581815481106105b957600080fd5b9060005260206000200160009150905080546105d4906115fe565b80601f0160208091040260200160405190810160405280929190818152602001828054610600906115fe565b801561064d5780601f106106225761010080835404028352916020019161064d565b820191906000526020600020905b81548152906001019060200180831161063057829003601f168201915b505050505081565b60606005805480602002602001604051908101604052809291908181526020016000905b82821015610725578382906000526020600020018054610698906115fe565b80601f01602080910402602001604051908101604052809291908181526020018280546106c4906115fe565b80156107115780601f106106e657610100808354040283529160200191610711565b820191906000526020600020905b8154815290600101906020018083116106f457829003601f168201915b505050505081526020019060010190610679565b50505050905090565b80516020818301810180516001808352938301929094019190912092905281549082015460028301546003840180546001600160a01b039485169593851694909216929161077b906115fe565b80601f01602080910402602001604051908101604052809291908181526020018280546107a7906115fe565b80156107f45780601f106107c9576101008083540402835291602001916107f4565b820191906000526020600020905b8154815290600101906020018083116107d757829003601f168201915b50505050600483015460059093015491929160ff16905086565b6040805160c0810182526000808252602082018190528183018190526060808301526080820181905260a0820152905160019061084c908490611632565b90815260408051918290036020908101832060c08401835280546001600160a01b03908116855260018201548116928501929092526002810154909116918301919091526003810180546060840191906108a5906115fe565b80601f01602080910402602001604051908101604052809291908181526020018280546108d1906115fe565b801561091e5780601f106108f35761010080835404028352916020019161091e565b820191906000526020600020905b81548152906001019060200180831161090157829003601f168201915b50505091835250506004820154602082015260059091015460ff16151560409091015292915050565b61094f61103d565b6109596000611097565b565b6000808651116109ad5760405162461bcd60e51b815260206004820152601b60248201527f50726f70657274792049442063616e6e6f7420626520656d70747900000000006044820152606401610399565b60006001600160a01b03166001876040516109c89190611632565b908152604051908190036020019020546001600160a01b031614610a3d5760405162461bcd60e51b815260206004820152602660248201527f546f6b656e20616c72656164792065786973747320666f7220746869732070726044820152656f706572747960d01b6064820152608401610399565b6000836080015111610a9d5760405162461bcd60e51b815260206004820152602360248201527f546f74616c20746f6b656e73206d75737420626520677265617465722074686160448201526206e20360ec1b6064820152608401610399565b6000836060015111610afc5760405162461bcd60e51b815260206004820152602260248201527f546f74616c2076616c7565206d7573742062652067726561746572207468616e604482015261020360f41b6064820152608401610399565b6000604051610b0a906110e7565b604051809103906000f080158015610b26573d6000803e3d6000fd5b506003546004805460405163184b955960e01b81526001600160a01b03938416928101929092528216602482015233604482015291925082169063184b955990606401600060405180830381600087803b158015610b8357600080fd5b505af1158015610b97573d6000803e3d6000fd5b505050506000604051610ba9906110f4565b604051809103906000f080158015610bc5573d6000803e3d6000fd5b5090506000604051610bd690611101565b604051809103906000f080158015610bf2573d6000803e3d6000fd5b50604051633e46d86760e21b81529091506001600160a01b0382169063f91b619c90610c2d90869086908d908d906012908d9060040161171e565b600060405180830381600087803b158015610c4757600080fd5b505af1158015610c5b573d6000803e3d6000fd5b50506040516387109abb60e01b81526001600160a01b03841692506387109abb9150610c8b908990600401611779565b600060405180830381600087803b158015610ca557600080fd5b505af1158015610cb9573d6000803e3d6000fd5b505060405163f2fde38b60e01b81523360048201526001600160a01b038616925063f2fde38b9150602401600060405180830381600087803b158015610cfe57600080fd5b505af1158015610d12573d6000803e3d6000fd5b505060405163f2fde38b60e01b81523360048201526001600160a01b038516925063f2fde38b9150602401600060405180830381600087803b158015610d5757600080fd5b505af1158015610d6b573d6000803e3d6000fd5b505060405163f2fde38b60e01b81523360048201526001600160a01b038416925063f2fde38b9150602401600060405180830381600087803b158015610db057600080fd5b505af1158015610dc4573d6000803e3d6000fd5b505050506040518060c00160405280826001600160a01b03168152602001846001600160a01b03168152602001836001600160a01b031681526020018a81526020014281526020016001151581525060018a604051610e239190611632565b9081526040805160209281900383019020835181546001600160a01b03199081166001600160a01b039283161783559385015160018301805486169183169190911790559184015160028201805490941692169190911790915560608201516003820190610e919082611867565b506080820151600482015560a0909101516005909101805460ff191691151591909117905533600090815260026020908152604082208054600181018255908352912001610edf8a82611867565b50600580546001810182556000919091527f036b6384b5eca791c62761152d0c79bb0604c104a5fb6f4eb0703f3154bb3db001610f1c8a82611867565b50336001600160a01b0316816001600160a01b03168a604051610f3f9190611632565b60405180910390207fc92a7ec89b93b624922b2f2d74c233831e3e65d1f2842568744965507420f2ab8b8b604051610f78929190611927565b60405180910390a498975050505050505050565b60026020528160005260406000208181548110610fa857600080fd5b906000526020600020016000915091505080546105d4906115fe565b610fcc61103d565b6001600160a01b0381166110315760405162461bcd60e51b815260206004820152602660248201527f4f776e61626c653a206e6577206f776e657220697320746865207a65726f206160448201526564647265737360d01b6064820152608401610399565b61103a81611097565b50565b6000546001600160a01b031633146109595760405162461bcd60e51b815260206004820181905260248201527f4f776e61626c653a2063616c6c6572206973206e6f7420746865206f776e65726044820152606401610399565b600080546001600160a01b038381166001600160a01b0319831681178455604051919092169283917f8be0079c531659141344cd1fd0a4f28419497f9722a3daafe3b4186f6b6457e09190a35050565b611b1e8061194d83390190565b61173d8061346b83390190565b61418c80614ba883390190565b6001600160a01b038116811461103a57600080fd5b803561112e8161110e565b919050565b60006020828403121561114557600080fd5b81356111508161110e565b9392505050565b60005b8381101561117257818101518382015260200161115a565b50506000910152565b60008151808452611193816020860160208601611157565b601f01601f19169290920160200192915050565b6000602080830181845280855180835260408601915060408160051b870101925083870160005b828110156111fc57603f198886030184526111ea85835161117b565b945092850192908501906001016111ce565b5092979650505050505050565b634e487b7160e01b600052604160045260246000fd5b60405160e0810167ffffffffffffffff8111828210171561124257611242611209565b60405290565b600082601f83011261125957600080fd5b813567ffffffffffffffff8082111561127457611274611209565b604051601f8301601f19908116603f0116810190828211818310171561129c5761129c611209565b816040528381528660208588010111156112b557600080fd5b836020870160208301376000602085830101528094505050505092915050565b8035801515811461112e57600080fd5b600080604083850312156112f857600080fd5b823567ffffffffffffffff81111561130f57600080fd5b61131b85828601611248565b92505061132a602084016112d5565b90509250929050565b60006020828403121561134557600080fd5b5035919050565b602081526000611150602083018461117b565b60006020828403121561137157600080fd5b813567ffffffffffffffff81111561138857600080fd5b61139484828501611248565b949350505050565b6001600160a01b03878116825286811660208301528516604082015260c0606082018190526000906113d09083018661117b565b60808301949094525090151560a090910152949350505050565b60208152600060018060a01b0380845116602084015280602085015116604084015280604085015116606084015250606083015160c0608084015261143260e084018261117b565b9050608084015160a084015260a0840151151560c08401528091505092915050565b600080600080600060a0868803121561146c57600080fd5b853567ffffffffffffffff8082111561148457600080fd5b61149089838a01611248565b965060208801359150808211156114a657600080fd5b6114b289838a01611248565b955060408801359150808211156114c857600080fd5b6114d489838a01611248565b945060608801359150808211156114ea57600080fd5b9087019060e0828a0312156114fe57600080fd5b61150661121f565b82358281111561151557600080fd5b6115218b828601611248565b82525060208301358281111561153657600080fd5b6115428b828601611248565b60208301525060408301358281111561155a57600080fd5b6115668b828601611248565b604083015250606083013560608201526080830135608082015261158c60a084016112d5565b60a082015260c0830135828111156115a357600080fd5b6115af8b828601611248565b60c08301525093506115c691505060808701611123565b90509295509295909350565b600080604083850312156115e557600080fd5b82356115f08161110e565b946020939093013593505050565b600181811c9082168061161257607f821691505b6020821081036105a357634e487b7160e01b600052602260045260246000fd5b60008251611644818460208701611157565b9190910192915050565b60006020828403121561166057600080fd5b81516111508161110e565b634e487b7160e01b600052603260045260246000fd5b600080835461168f816115fe565b600182811680156116a757600181146116bc576116eb565b60ff19841687528215158302870194506116eb565b8760005260208060002060005b858110156116e25781548a8201529084019082016116c9565b50505082870194505b50929695505050505050565b60006001820161171757634e487b7160e01b600052601160045260246000fd5b5060010190565b600060018060a01b038089168352808816602084015260c0604084015261174860c084018861117b565b838103606085015261175a818861117b565b60ff969096166080850152509290921660a09091015250949350505050565b602081526000825160e0602084015261179661010084018261117b565b90506020840151601f19808584030160408601526117b4838361117b565b925060408601519150808584030160608601526117d1838361117b565b925060608601516080860152608086015160a086015260a0860151151560c086015260c08601519150808584030160e08601525061180f828261117b565b95945050505050565b601f82111561186257600081815260208120601f850160051c8101602086101561183f5750805b601f850160051c820191505b8181101561185e5782815560010161184b565b5050505b505050565b815167ffffffffffffffff81111561188157611881611209565b6118958161188f84546115fe565b84611818565b602080601f8311600181146118ca57600084156118b25750858301515b600019600386901b1c1916600185901b17855561185e565b600085815260208120601f198616915b828110156118f9578886015182559484019460019091019084016118da565b50858210156119175787850151600019600388901b60f8161c191681555b5050505050600190811b01905550565b60408152600061193a604083018561117b565b828103602084015261180f818561117b56fe608060405234801561001057600080fd5b50611afe806100206000396000f3fe608060405234801561001057600080fd5b50600436106101425760003560e01c806384e79842116100b8578063b4f3fcb71161007c578063b4f3fcb7146102a6578063b9209e33146102b7578063e744d789146102ca578063f0eb5e54146102dd578063f11abfd8146102f0578063f2fde38b1461030157600080fd5b806384e79842146102495780638da5cb5b1461025c5780638e098ca11461026d57806397a6278e14610280578063a8d29d1d1461029357600080fd5b8063454a03e01161010a578063454a03e0146101cf5780635dbe47e8146101e2578063653dc9f1146101f5578063670af6a914610208578063715018a61461021b5780637e42683b1461022357600080fd5b8063184b9559146101475780631ffbb0641461015c57806326d941ae146101845780633b239a7f146101975780633b3e12f4146101aa575b600080fd5b61015a6101553660046113d1565b610314565b005b61016f61016a36600461141c565b610549565b60405190151581526020015b60405180910390f35b61015a61019236600461141c565b61055c565b61015a6101a5366004611450565b6105ae565b6066546001600160a01b03165b6040516001600160a01b03909116815260200161017b565b61015a6101dd366004611489565b61067a565b61016f6101f036600461141c565b61074d565b61015a610203366004611515565b610777565b61015a61021636600461141c565b610815565b61015a610867565b61023661023136600461141c565b61087b565b60405161ffff909116815260200161017b565b61015a61025736600461141c565b6108ea565b6033546001600160a01b03166101b7565b61015a61027b3660046115af565b61095a565b61015a61028e36600461141c565b610a30565b61015a6102a136600461141c565b610aa0565b6067546001600160a01b03166101b7565b61016f6102c536600461141c565b610b6d565b61015a6102d836600461141c565b610ff6565b6101b76102eb36600461141c565b611048565b6068546001600160a01b03166101b7565b61015a61030f36600461141c565b6110b7565b600054610100900460ff16158080156103345750600054600160ff909116105b8061034e5750303b15801561034e575060005460ff166001145b6103b65760405162461bcd60e51b815260206004820152602e60248201527f496e697469616c697a61626c653a20636f6e747261637420697320616c72656160448201526d191e481a5b9a5d1a585b1a5e995960921b60648201526084015b60405180910390fd5b6000805460ff1916600117905580156103d9576000805461ff0019166101001790555b6001600160a01b038416158015906103f957506001600160a01b03831615155b801561040d57506001600160a01b03821615155b6104295760405162461bcd60e51b81526004016103ad906115dd565b606680546001600160a01b038086166001600160a01b031992831681179093556067805488831690841617905560688054918616919092161790556040517f7170bf15b246e880b2369cd7c67d057760d8a35149e8c64dde91efa22bcc76d090600090a26040516001600160a01b038516907f1b98cb79e6f73020175fe87333f1b91ad6a881519c0afe30340c2599b2b4bde090600090a26040516001600160a01b038316907f2fa8b95c1db7afe99e3398f3792f008135cedc1fa26b0bb2ecd2352cd166d53c90600090a26104fd611130565b8015610543576000805461ff0019169055604051600181527f7f26b83ff96e1f2b6a682f133852f6798a09c465da95921460cefb38474024989060200160405180910390a15b50505050565b600061055660658361115f565b92915050565b6105646111e2565b606880546001600160a01b0319166001600160a01b0383169081179091556040517f2fa8b95c1db7afe99e3398f3792f008135cedc1fa26b0bb2ecd2352cd166d53c90600090a250565b6105b733610549565b6105d35760405162461bcd60e51b81526004016103ad90611614565b606854604051639f3418d560e01b81526001600160a01b03848116600483015261ffff8416602483015290911690639f3418d590604401600060405180830381600087803b15801561062457600080fd5b505af1158015610638573d6000803e3d6000fd5b505060405161ffff841692506001600160a01b03851691507f04ed3b726495c2dca1ff1215d9ca54e1a4030abb5e82b0f6ce55702416cee85390600090a35050565b61068333610549565b61069f5760405162461bcd60e51b81526004016103ad90611614565b60685460405163a53410dd60e01b81526001600160a01b038581166004830152848116602483015261ffff841660448301529091169063a53410dd90606401600060405180830381600087803b1580156106f857600080fd5b505af115801561070c573d6000803e3d6000fd5b50506040516001600160a01b038086169350861691507f6ae73635c50d24a45af6fbd5e016ac4bed179addbc8bf24e04ff0fcc6d33af1990600090a3505050565b60008061075983611048565b6001600160a01b03160361076f57506000919050565b506001919050565b60005b8581101561080c576107fa87878381811061079757610797611662565b90506020020160208101906107ac919061141c565b8686848181106107be576107be611662565b90506020020160208101906107d3919061141c565b8585858181106107e5576107e5611662565b90506020020160208101906101dd9190611678565b80610804816116ab565b91505061077a565b50505050505050565b61081d6111e2565b606680546001600160a01b0319166001600160a01b0383169081179091556040517f7170bf15b246e880b2369cd7c67d057760d8a35149e8c64dde91efa22bcc76d090600090a250565b61086f6111e2565b610879600061123c565b565b606854604051631c9f84ef60e21b81526001600160a01b038381166004830152600092169063727e13bc90602401602060405180830381865afa1580156108c6573d6000803e3d6000fd5b505050506040513d601f19601f8201168201806040525081019061055691906116c4565b6108f26111e2565b6001600160a01b0381166109185760405162461bcd60e51b81526004016103ad906115dd565b61092360658261128e565b6040516001600160a01b038216907ff68e73cec97f2d70aa641fb26e87a4383686e2efacb648f2165aeb02ac562ec590600090a250565b61096333610549565b61097f5760405162461bcd60e51b81526004016103ad90611614565b600061098a83611048565b606854604051637402e7c360e11b81526001600160a01b038681166004830152858116602483015292935091169063e805cf8690604401600060405180830381600087803b1580156109db57600080fd5b505af11580156109ef573d6000803e3d6000fd5b50506040516001600160a01b038086169350841691507fe98082932c8056a0f514da9104e4a66bc2cbaef102ad59d90c4b24220ebf601090600090a3505050565b610a386111e2565b6001600160a01b038116610a5e5760405162461bcd60e51b81526004016103ad906115dd565b610a6960658261130a565b6040516001600160a01b038216907fed9c8ad8d5a0a66898ea49d2956929c93ae2e8bd50281b2ed897c5d1a6737e0b90600090a250565b610aa933610549565b610ac55760405162461bcd60e51b81526004016103ad90611614565b6000610ad082611048565b60685460405163cf191bcd60e01b81526001600160a01b03858116600483015292935091169063cf191bcd90602401600060405180830381600087803b158015610b1957600080fd5b505af1158015610b2d573d6000803e3d6000fd5b50506040516001600160a01b038085169350851691507f59d6590e225b81befe259af056324092801080acbb7feab310eb34678871f32790600090a35050565b600080610b7983611048565b6001600160a01b031603610b8f57506000919050565b606654604080516337c2758160e21b815290516000926001600160a01b03169163df09d60491600480830192869291908290030181865afa158015610bd8573d6000803e3d6000fd5b505050506040513d6000823e601f3d908101601f19168201604052610c00919081019061174c565b90508051600003610c145750600192915050565b600080600060608060005b8651811015610fe75760675487516000916001600160a01b0316906352c111d1908a9085908110610c5257610c52611662565b60200260200101516040518263ffffffff1660e01b8152600401610c7891815260200190565b600060405180830381865afa158015610c95573d6000803e3d6000fd5b505050506040513d6000823e601f3d908101601f19168201604052610cbd91908101906117e2565b90508051600003610cd8575060009998505050505050505050565b6000815167ffffffffffffffff811115610cf457610cf46116e1565b604051908082528060200260200182016040528015610d1d578160200160208202803683370190505b50905060005b8251811015610dca57828181518110610d3e57610d3e611662565b60200260200101518a8581518110610d5857610d58611662565b6020026020010151604051602001610d859291906001600160a01b03929092168252602082015260400190565b60405160208183030381529060405280519060200120828281518110610dad57610dad611662565b602090810291909101015280610dc2816116ab565b915050610d23565b5060005b8151811015610fd157610de08c611048565b6001600160a01b031663c9100bcb838381518110610e0057610e00611662565b60200260200101516040518263ffffffff1660e01b8152600401610e2691815260200190565b600060405180830381865afa158015610e43573d6000803e3d6000fd5b505050506040513d6000823e601f3d908101601f19168201604052610e6b9190810190611904565b508e51949d50929b50909950975095508a9085908110610e8d57610e8d611662565b60200260200101518903610f9957866001600160a01b031663c0969a6e610eb38e611048565b8c8781518110610ec557610ec5611662565b602002602001015189896040518563ffffffff1660e01b8152600401610eee94939291906119f2565b602060405180830381865afa925050508015610f27575060408051601f3d908101601f19168201909252610f2491810190611a2b565b60015b610f565760018251610f399190611a4d565b8103610f51575060009b9a5050505050505050505050565b610fbf565b8015610f6157825191505b80158015610f7b575060018351610f789190611a4d565b82145b15610f93575060009c9b505050505050505050505050565b50610fbf565b60018251610fa79190611a4d565b8103610fbf575060009b9a5050505050505050505050565b80610fc9816116ab565b915050610dce565b5050508080610fdf906116ab565b915050610c1f565b50600198975050505050505050565b610ffe6111e2565b606780546001600160a01b0319166001600160a01b0383169081179091556040517f1b98cb79e6f73020175fe87333f1b91ad6a881519c0afe30340c2599b2b4bde090600090a250565b606854604051637988d3a560e01b81526001600160a01b0383811660048301526000921690637988d3a590602401602060405180830381865afa158015611093573d6000803e3d6000fd5b505050506040513d601f19601f820116820180604052508101906105569190611a60565b6110bf6111e2565b6001600160a01b0381166111245760405162461bcd60e51b815260206004820152602660248201527f4f776e61626c653a206e6577206f776e657220697320746865207a65726f206160448201526564647265737360d01b60648201526084016103ad565b61112d8161123c565b50565b600054610100900460ff166111575760405162461bcd60e51b81526004016103ad90611a7d565b61087961138c565b60006001600160a01b0382166111c25760405162461bcd60e51b815260206004820152602260248201527f526f6c65733a206163636f756e7420697320746865207a65726f206164647265604482015261737360f01b60648201526084016103ad565b506001600160a01b03166000908152602091909152604090205460ff1690565b6033546001600160a01b031633146108795760405162461bcd60e51b815260206004820181905260248201527f4f776e61626c653a2063616c6c6572206973206e6f7420746865206f776e657260448201526064016103ad565b603380546001600160a01b038381166001600160a01b0319831681179093556040519116919082907f8be0079c531659141344cd1fd0a4f28419497f9722a3daafe3b4186f6b6457e090600090a35050565b611298828261115f565b156112e55760405162461bcd60e51b815260206004820152601f60248201527f526f6c65733a206163636f756e7420616c72656164792068617320726f6c650060448201526064016103ad565b6001600160a01b0316600090815260209190915260409020805460ff19166001179055565b611314828261115f565b61136a5760405162461bcd60e51b815260206004820152602160248201527f526f6c65733a206163636f756e7420646f6573206e6f74206861766520726f6c6044820152606560f81b60648201526084016103ad565b6001600160a01b0316600090815260209190915260409020805460ff19169055565b600054610100900460ff166113b35760405162461bcd60e51b81526004016103ad90611a7d565b6108793361123c565b6001600160a01b038116811461112d57600080fd5b6000806000606084860312156113e657600080fd5b83356113f1816113bc565b92506020840135611401816113bc565b91506040840135611411816113bc565b809150509250925092565b60006020828403121561142e57600080fd5b8135611439816113bc565b9392505050565b61ffff8116811461112d57600080fd5b6000806040838503121561146357600080fd5b823561146e816113bc565b9150602083013561147e81611440565b809150509250929050565b60008060006060848603121561149e57600080fd5b83356114a9816113bc565b925060208401356114b9816113bc565b9150604084013561141181611440565b60008083601f8401126114db57600080fd5b50813567ffffffffffffffff8111156114f357600080fd5b6020830191508360208260051b850101111561150e57600080fd5b9250929050565b6000806000806000806060878903121561152e57600080fd5b863567ffffffffffffffff8082111561154657600080fd5b6115528a838b016114c9565b9098509650602089013591508082111561156b57600080fd5b6115778a838b016114c9565b9096509450604089013591508082111561159057600080fd5b5061159d89828a016114c9565b979a9699509497509295939492505050565b600080604083850312156115c257600080fd5b82356115cd816113bc565b9150602083013561147e816113bc565b6020808252601f908201527f696e76616c696420617267756d656e74202d207a65726f206164647265737300604082015260600190565b6020808252602e908201527f4167656e74526f6c653a2063616c6c657220646f6573206e6f7420686176652060408201526d746865204167656e7420726f6c6560901b606082015260800190565b634e487b7160e01b600052603260045260246000fd5b60006020828403121561168a57600080fd5b813561143981611440565b634e487b7160e01b600052601160045260246000fd5b6000600182016116bd576116bd611695565b5060010190565b6000602082840312156116d657600080fd5b815161143981611440565b634e487b7160e01b600052604160045260246000fd5b604051601f8201601f1916810167ffffffffffffffff81118282101715611720576117206116e1565b604052919050565b600067ffffffffffffffff821115611742576117426116e1565b5060051b60200190565b6000602080838503121561175f57600080fd5b825167ffffffffffffffff81111561177657600080fd5b8301601f8101851361178757600080fd5b805161179a61179582611728565b6116f7565b81815260059190911b820183019083810190878311156117b957600080fd5b928401925b828410156117d7578351825292840192908401906117be565b979650505050505050565b600060208083850312156117f557600080fd5b825167ffffffffffffffff81111561180c57600080fd5b8301601f8101851361181d57600080fd5b805161182b61179582611728565b81815260059190911b8201830190838101908783111561184a57600080fd5b928401925b828410156117d7578351611862816113bc565b8252928401929084019061184f565b60005b8381101561188c578181015183820152602001611874565b50506000910152565b600067ffffffffffffffff8311156118af576118af6116e1565b6118c2601f8401601f19166020016116f7565b90508281528383830111156118d657600080fd5b611439836020830184611871565b600082601f8301126118f557600080fd5b61143983835160208501611895565b60008060008060008060c0878903121561191d57600080fd5b86519550602087015194506040870151611936816113bc565b606088015190945067ffffffffffffffff8082111561195457600080fd5b6119608a838b016118e4565b9450608089015191508082111561197657600080fd5b6119828a838b016118e4565b935060a089015191508082111561199857600080fd5b508701601f810189136119aa57600080fd5b6119b989825160208401611895565b9150509295509295509295565b600081518084526119de816020860160208601611871565b601f01601f19169290920160200192915050565b60018060a01b0385168152836020820152608060408201526000611a1960808301856119c6565b82810360608401526117d781856119c6565b600060208284031215611a3d57600080fd5b8151801515811461143957600080fd5b8181038181111561055657610556611695565b600060208284031215611a7257600080fd5b8151611439816113bc565b6020808252602b908201527f496e697469616c697a61626c653a20636f6e7472616374206973206e6f74206960408201526a6e697469616c697a696e6760a81b60608201526080019056fea264697066735822122058db962edf46c6d06c612dd20d5849795b16a811a840c368029230d29e009e7064736f6c63430008110033608060405234801561001057600080fd5b5061171d806100206000396000f3fe608060405234801561001057600080fd5b50600436106101215760003560e01c80638d2ea772116100ad578063b2494df311610071578063b2494df31461028e578063e1c7392a146102a3578063e46638e6146102ab578063efb22d33146102be578063f2fde38b146102d157600080fd5b80638d2ea772146102085780638da5cb5b1461021b578063a06324611461022c578063a446d49f1461023f578063a5410a661461026b57600080fd5b806354b7636e116100f457806354b7636e146101745780635f8dead3146101b55780636a3edf28146101c8578063715018a6146101ed5780638baf29b4146101f557600080fd5b80631ed86f1914610126578063300b53c21461013b5780633ff5aa021461014e57806340db3b5014610161575b600080fd5b6101396101343660046113dc565b6102e4565b005b610139610149366004611405565b6105f3565b61013961015c3660046113dc565b61065a565b61013961016f3660046113dc565b610765565b6101a06101823660046113dc565b6001600160a01b031660009081526099602052604090205460ff1690565b60405190151581526020015b60405180910390f35b6101396101c336600461143c565b6108ad565b6065546001600160a01b03165b6040516001600160a01b0390911681526020016101ac565b6101396109f6565b610139610203366004611466565b610a0a565b61013961021636600461143c565b610b7e565b6033546001600160a01b03166101d5565b61013961023a3660046113dc565b610cc1565b6101a061024d3660046113dc565b6001600160a01b031660009081526067602052604090205460ff1690565b6101a06102793660046113dc565b60996020526000908152604090205460ff1681565b610296610ef9565b6040516101ac91906114a2565b610139610f5b565b6101a06102b9366004611466565b611068565b6101396102cc3660046114ef565b611145565b6101396102df3660046113dc565b61122b565b6102ec6112a1565b6001600160a01b03811661031b5760405162461bcd60e51b815260040161031290611570565b60405180910390fd5b6001600160a01b03811660009081526067602052604090205460ff161561037b5760405162461bcd60e51b81526020600482015260146024820152731b5bd91d5b1948185b1c9958591e48189bdd5b9960621b6044820152606401610312565b606654601810156103ce5760405162461bcd60e51b815260206004820152601f60248201527f63616e6e6f7420616464206d6f7265207468616e203235206d6f64756c6573006044820152606401610312565b6000819050806001600160a01b031663e6f5e8076040518163ffffffff1660e01b8152600401602060405180830381865afa158015610411573d6000803e3d6000fd5b505050506040513d601f19601f8201168201806040525081019061043591906115a7565b61050a5760405163bcc2105360e01b81523060048201526001600160a01b0382169063bcc2105390602401602060405180830381865afa15801561047d573d6000803e3d6000fd5b505050506040513d601f19601f820116820180604052508101906104a191906115a7565b61050a5760405162461bcd60e51b815260206004820152603460248201527f636f6d706c69616e6365206973206e6f74207375697461626c6520666f722062604482015273696e64696e6720746f20746865206d6f64756c6560601b6064820152608401610312565b6040516312a4c95160e21b81523060048201526001600160a01b03821690634a93254490602401600060405180830381600087803b15801561054b57600080fd5b505af115801561055f573d6000803e3d6000fd5b50506066805460018082019092557f46501879b8ca8525e8c2fd519e2fbfcfa2ebea26501294aa02cbfcfb12e943540180546001600160a01b0319166001600160a01b038716908117909155600081815260676020526040808220805460ff191690941790935591519093507fead6a006345da1073a106d5f32372d2d2204f46cb0b4bca8f5ebafcbbed12b8a9250a25050565b6105fb6112a1565b6001600160a01b038216600081815260996020908152604091829020805460ff191685151590811790915591519182527f2df1cad2a2659e001c3804c872f69655356013e35c18c2e77a5d568078ab788f910160405180910390a25050565b3361066d6033546001600160a01b031690565b6001600160a01b0316148061069e57506065546001600160a01b031615801561069e5750336001600160a01b038216145b6106ea5760405162461bcd60e51b815260206004820152601c60248201527f6f6e6c79206f776e6572206f7220746f6b656e2063616e2063616c6c000000006044820152606401610312565b6001600160a01b0381166107105760405162461bcd60e51b815260040161031290611570565b606580546001600160a01b0319166001600160a01b0383169081179091556040519081527f2de35142b19ed5a07796cf30791959c592018f70b1d2d7c460eef8ffe713692b906020015b60405180910390a150565b336107786033546001600160a01b031690565b6001600160a01b031614806107955750336001600160a01b038216145b6107e15760405162461bcd60e51b815260206004820152601c60248201527f6f6e6c79206f776e6572206f7220746f6b656e2063616e2063616c6c000000006044820152606401610312565b6065546001600160a01b0382811691161461083e5760405162461bcd60e51b815260206004820152601760248201527f5468697320746f6b656e206973206e6f7420626f756e640000000000000000006044820152606401610312565b6001600160a01b0381166108645760405162461bcd60e51b815260040161031290611570565b606580546001600160a01b03191690556040516001600160a01b03821681527f28a4ca7134a3b3f9aff286e79ad3daadb4a06d1b43d037a3a98bdc074edd9b7a9060200161075a565b6065546001600160a01b031633146108d75760405162461bcd60e51b8152600401610312906115c4565b6001600160a01b0382166108fd5760405162461bcd60e51b815260040161031290611570565b6000811161094d5760405162461bcd60e51b815260206004820181905260248201527f696e76616c696420617267756d656e74202d206e6f2076616c7565206d696e746044820152606401610312565b60665460005b818110156109f0576066818154811061096e5761096e61162e565b60009182526020909120015460405163f104a8c960e01b81526001600160a01b038681166004830152602482018690529091169063f104a8c990604401600060405180830381600087803b1580156109c557600080fd5b505af11580156109d9573d6000803e3d6000fd5b5050505080806109e89061165a565b915050610953565b50505050565b6109fe6112a1565b610a0860006112fb565b565b6065546001600160a01b03163314610a345760405162461bcd60e51b8152600401610312906115c4565b6001600160a01b03831615801590610a5457506001600160a01b03821615155b610a705760405162461bcd60e51b815260040161031290611570565b60008111610acc5760405162461bcd60e51b8152602060048201526024808201527f696e76616c696420617267756d656e74202d206e6f2076616c7565207472616e60448201526339b332b960e11b6064820152608401610312565b60665460005b81811015610b775760668181548110610aed57610aed61162e565b600091825260209091200154604051630b2df87b60e21b81526001600160a01b03878116600483015286811660248301526044820186905290911690632cb7e1ec90606401600060405180830381600087803b158015610b4c57600080fd5b505af1158015610b60573d6000803e3d6000fd5b505050508080610b6f9061165a565b915050610ad2565b5050505050565b6065546001600160a01b03163314610ba85760405162461bcd60e51b8152600401610312906115c4565b6001600160a01b038216610bce5760405162461bcd60e51b815260040161031290611570565b60008111610c1e5760405162461bcd60e51b815260206004820181905260248201527f696e76616c696420617267756d656e74202d206e6f2076616c7565206275726e6044820152606401610312565b60665460005b818110156109f05760668181548110610c3f57610c3f61162e565b600091825260209091200154604051631b9248d160e11b81526001600160a01b038681166004830152602482018690529091169063372491a290604401600060405180830381600087803b158015610c9657600080fd5b505af1158015610caa573d6000803e3d6000fd5b505050508080610cb99061165a565b915050610c24565b610cc96112a1565b6001600160a01b038116610cef5760405162461bcd60e51b815260040161031290611570565b6001600160a01b03811660009081526067602052604090205460ff16610d4a5760405162461bcd60e51b815260206004820152601060248201526f1b5bd91d5b19481b9bdd08189bdd5b9960821b6044820152606401610312565b60665460005b81811015610ef457826001600160a01b031660668281548110610d7557610d7561162e565b6000918252602090912001546001600160a01b031603610ee257604051630694a5fb60e01b81523060048201526001600160a01b03841690630694a5fb90602401600060405180830381600087803b158015610dd057600080fd5b505af1158015610de4573d6000803e3d6000fd5b505050506066600183610df79190611673565b81548110610e0757610e0761162e565b600091825260209091200154606680546001600160a01b039092169183908110610e3357610e3361162e565b9060005260206000200160006101000a8154816001600160a01b0302191690836001600160a01b031602179055506066805480610e7257610e72611686565b60008281526020808220830160001990810180546001600160a01b03191690559092019092556001600160a01b03851680835260679091526040808320805460ff191690555190917f0a1ee69f55c33d8467c69ca59ce2007a737a88603d75392972520bf67cb513b891a2505050565b80610eec8161165a565b915050610d50565b505050565b60606066805480602002602001604051908101604052809291908181526020018280548015610f5157602002820191906000526020600020905b81546001600160a01b03168152600190910190602001808311610f33575b5050505050905090565b600054610100900460ff1615808015610f7b5750600054600160ff909116105b80610f955750303b158015610f95575060005460ff166001145b610ff85760405162461bcd60e51b815260206004820152602e60248201527f496e697469616c697a61626c653a20636f6e747261637420697320616c72656160448201526d191e481a5b9a5d1a585b1a5e995960921b6064820152608401610312565b6000805460ff19166001179055801561101b576000805461ff0019166101001790555b61102361134d565b8015611065576000805461ff0019169055604051600181527f7f26b83ff96e1f2b6a682f133852f6798a09c465da95921460cefb38474024989060200161075a565b50565b606654600090815b81811015611137576066818154811061108b5761108b61162e565b600091825260209091200154604051624edf3960e21b81526001600160a01b0388811660048301528781166024830152604482018790523060648301529091169063013b7ce490608401602060405180830381865afa1580156110f2573d6000803e3d6000fd5b505050506040513d601f19601f8201168201806040525081019061111691906115a7565b6111255760009250505061113e565b8061112f8161165a565b915050611070565b5060019150505b9392505050565b61114d6112a1565b6001600160a01b03811660009081526067602052604090205460ff166111b55760405162461bcd60e51b815260206004820152601960248201527f63616c6c206f6e6c79206f6e20626f756e64206d6f64756c65000000000000006044820152606401610312565b6040518284823760008084836000865af16111d4573d6000803e3d6000fd5b50806001600160a01b03167f20d79de70adcc6e9353d8a9a5646b46dc352710d0a310b1ad1f67faeca7ef89161120a858561137c565b6040516001600160e01b0319909116815260200160405180910390a2505050565b6112336112a1565b6001600160a01b0381166112985760405162461bcd60e51b815260206004820152602660248201527f4f776e61626c653a206e6577206f776e657220697320746865207a65726f206160448201526564647265737360d01b6064820152608401610312565b611065816112fb565b6033546001600160a01b03163314610a085760405162461bcd60e51b815260206004820181905260248201527f4f776e61626c653a2063616c6c6572206973206e6f7420746865206f776e65726044820152606401610312565b603380546001600160a01b038381166001600160a01b0319831681179093556040519116919082907f8be0079c531659141344cd1fd0a4f28419497f9722a3daafe3b4186f6b6457e090600090a35050565b600054610100900460ff166113745760405162461bcd60e51b81526004016103129061169c565b610a08611390565b60006004821061138a575081355b92915050565b600054610100900460ff166113b75760405162461bcd60e51b81526004016103129061169c565b610a08336112fb565b80356001600160a01b03811681146113d757600080fd5b919050565b6000602082840312156113ee57600080fd5b61113e826113c0565b801515811461106557600080fd5b6000806040838503121561141857600080fd5b611421836113c0565b91506020830135611431816113f7565b809150509250929050565b6000806040838503121561144f57600080fd5b611458836113c0565b946020939093013593505050565b60008060006060848603121561147b57600080fd5b611484846113c0565b9250611492602085016113c0565b9150604084013590509250925092565b6020808252825182820181905260009190848201906040850190845b818110156114e35783516001600160a01b0316835292840192918401916001016114be565b50909695505050505050565b60008060006040848603121561150457600080fd5b833567ffffffffffffffff8082111561151c57600080fd5b818601915086601f83011261153057600080fd5b81358181111561153f57600080fd5b87602082850101111561155157600080fd5b60209283019550935061156791860190506113c0565b90509250925092565b6020808252601f908201527f696e76616c696420617267756d656e74202d207a65726f206164647265737300604082015260600190565b6000602082840312156115b957600080fd5b815161113e816113f7565b60208082526044908201527f6572726f72203a20746869732061646472657373206973206e6f74206120746f60408201527f6b656e20626f756e6420746f2074686520636f6d706c69616e636520636f6e746060820152631c9858dd60e21b608082015260a00190565b634e487b7160e01b600052603260045260246000fd5b634e487b7160e01b600052601160045260246000fd5b60006001820161166c5761166c611644565b5060010190565b8181038181111561138a5761138a611644565b634e487b7160e01b600052603160045260246000fd5b6020808252602b908201527f496e697469616c697a61626c653a20636f6e7472616374206973206e6f74206960408201526a6e697469616c697a696e6760a81b60608201526080019056fea2646970667358221220dd173d4900c6aa91ac8b187fca6d0be25df1720bd1cd46407c38de42e8e9395664736f6c634300081100336080604052606e805460ff1916905534801561001a57600080fd5b506141628061002a6000396000f3fe608060405234801561001057600080fd5b50600436106103415760003560e01c8063715018a6116101b8578063aba6370511610104578063e35568cb116100a2578063f2fde38b1161007c578063f2fde38b14610778578063f89817891461078b578063f91b619c1461079e578063fc7e5fa8146107b157600080fd5b8063e35568cb1461073c578063e583983614610744578063e63abb6a1461077057600080fd5b8063c69c09cf116100de578063c69c09cf146106bd578063cbf3f861146106d0578063d3690b6a146106e3578063dd62ed3e1461070357600080fd5b8063aba6370514610681578063b84c824614610697578063c47f0027146106aa57600080fd5b80639285948a116101715780639dc29fac1161014b5780639dc29fac146106355780639fc1d0e714610648578063a457c2d71461065b578063a9059cbb1461066e57600080fd5b80639285948a1461060757806395d89b411461061a57806397a6278e1461062257600080fd5b8063715018a6146105ad5780638456cb59146105b557806384e79842146105bd57806387109abb146105d057806388d695b2146105e35780638da5cb5b146105f657600080fd5b8063342d6d321161029257806349d4f429116102305780635c975abb1161020a5780635c975abb1461056b5780636290865d14610576578063685731071461058757806370a082311461059a57600080fd5b806349d4f4291461050e5780634a6cc6771461053757806354fd4d501461054a57600080fd5b80633f4ba83a1161026c5780633f4ba83a146104cd57806340c10f19146104d557806342a47abc146104e85780634710362d146104fb57600080fd5b8063342d6d321461049457806339509351146104a75780633d1ddc5b146104ba57600080fd5b806318160ddd116102ff5780631ffbb064116102d95780631ffbb0641461044657806323b872dd1461045957806328ee551b1461046c578063313ce5671461047f57600080fd5b806318160ddd146104185780631a7af379146104205780631fe56f7d1461043357600080fd5b80627dc3721461034657806306fdde031461036a578063095ea7b31461037f578063125c4a33146103a2578063134e18f4146103b7578063158b1a57146103e1575b600080fd5b61034e6107c4565b60405161036197969594939291906135b7565b60405180910390f35b610372610a1b565b6040516103619190613626565b61039261038d366004613655565b610aad565b6040519015158152602001610361565b6103b56103b0366004613655565b610ac4565b005b606e5461010090046001600160a01b03165b6040516001600160a01b039091168152602001610361565b61040a6103ef36600461367f565b6001600160a01b03166000908152606d602052604090205490565b604051908152602001610361565b60685461040a565b6103b561042e3660046136e6565b610bf3565b6103b5610441366004613655565b610c68565b61039261045436600461367f565b610d91565b610392610467366004613752565b610d9e565b6103b561047a3660046137a7565b6110a8565b606b5460405160ff9091168152602001610361565b6103b56104a2366004613655565b6110e0565b6103926104b5366004613655565b6112ef565b6103b56104c836600461367f565b611326565b6103b56113e4565b6103b56104e3366004613655565b611492565b6103b56104f63660046137c4565b6116ad565b6103b56105093660046136e6565b611743565b61040a61051c36600461367f565b6001600160a01b0316600090815260a8602052604090205490565b6103b56105453660046136e6565b6117a8565b604080518082019091526005815264342e312e3360d81b6020820152610372565b606e5460ff16610392565b606f546001600160a01b03166103c9565b6103b56105953660046136e6565b61180d565b61040a6105a836600461367f565b611872565b6103b561188d565b6103b56118a1565b6103b56105cb36600461367f565b611926565b6103b56105de36600461392a565b611996565b6103b56105f13660046136e6565b611ac2565b6033546001600160a01b03166103c9565b610392610615366004613a28565b611b28565b610372611e97565b6103b561063036600461367f565b611ea6565b6103b5610643366004613655565b611f16565b610392610656366004613752565b6120c1565b610392610669366004613655565b6122ef565b61039261067c366004613655565b612326565b606b5461010090046001600160a01b03166103c9565b6103b56106a5366004613a6b565b61259d565b6103b56106b8366004613a6b565b6126c9565b6103b56106cb366004613add565b612755565b6103b56106de36600461367f565b6127cf565b61040a6106f136600461367f565b60a86020526000908152604090205481565b61040a610711366004613b14565b6001600160a01b03918216600090815260676020908152604080832093909416825291909152205490565b61040a612829565b61039261075236600461367f565b6001600160a01b03166000908152606c602052604090205460ff1690565b60a45461040a565b6103b561078636600461367f565b61289f565b6103b561079936600461367f565b612918565b6103b56107ac366004613b47565b612a32565b6103b56107bf3660046136e6565b612e0a565b60a1805481906107d390613bf4565b80601f01602080910402602001604051908101604052809291908181526020018280546107ff90613bf4565b801561084c5780601f106108215761010080835404028352916020019161084c565b820191906000526020600020905b81548152906001019060200180831161082f57829003601f168201915b50505050509080600101805461086190613bf4565b80601f016020809104026020016040519081016040528092919081815260200182805461088d90613bf4565b80156108da5780601f106108af576101008083540402835291602001916108da565b820191906000526020600020905b8154815290600101906020018083116108bd57829003601f168201915b5050505050908060020180546108ef90613bf4565b80601f016020809104026020016040519081016040528092919081815260200182805461091b90613bf4565b80156109685780601f1061093d57610100808354040283529160200191610968565b820191906000526020600020905b81548152906001019060200180831161094b57829003601f168201915b5050506003840154600485015460058601546006870180549697939692955060ff90911693509061099890613bf4565b80601f01602080910402602001604051908101604052809291908181526020018280546109c490613bf4565b8015610a115780601f106109e657610100808354040283529160200191610a11565b820191906000526020600020905b8154815290600101906020018083116109f457829003601f168201915b5050505050905087565b606060698054610a2a90613bf4565b80601f0160208091040260200160405190810160405280929190818152602001828054610a5690613bf4565b8015610aa35780601f10610a7857610100808354040283529160200191610aa3565b820191906000526020600020905b815481529060010190602001808311610a8657829003601f168201915b5050505050905090565b6000610aba338484612e6f565b5060015b92915050565b610acd33610d91565b610af25760405162461bcd60e51b8152600401610ae990613c2e565b60405180910390fd5b6000610afd83611872565b6001600160a01b0384166000908152606d6020526040902054909150610b24908390613c92565b811015610b735760405162461bcd60e51b815260206004820181905260248201527f416d6f756e74206578636565647320617661696c61626c652062616c616e63656044820152606401610ae9565b6001600160a01b0383166000908152606d6020526040902054610b97908390613c92565b6001600160a01b0384166000818152606d6020526040908190209290925590517fa065e63c631c86f1b9f66a4a2f63f2093bf1c2168d23290259dbd969e0222a4590610be69085815260200190565b60405180910390a2505050565b60005b83811015610c6157610c4f858583818110610c1357610c13613ca5565b9050602002016020810190610c28919061367f565b848484818110610c3a57610c3a613ca5565b90506020020160208101906106cb91906137a7565b80610c5981613cbb565b915050610bf6565b5050505050565b610c7133610d91565b610c8d5760405162461bcd60e51b8152600401610ae990613c2e565b6001600160a01b0382166000908152606d6020526040902054811115610d125760405162461bcd60e51b815260206004820152603460248201527f416d6f756e742073686f756c64206265206c657373207468616e206f7220657160448201527375616c20746f2066726f7a656e20746f6b656e7360601b6064820152608401610ae9565b6001600160a01b0382166000908152606d6020526040902054610d36908290613cd4565b6001600160a01b0383166000818152606d6020526040908190209290925590517f9bed35cb62ad0dba04f9d5bfee4b5bc91443e77da8a65c4c84834c51bb08b0d690610d859084815260200190565b60405180910390a25050565b6000610abe606583612f94565b606e5460009060ff1615610dc45760405162461bcd60e51b8152600401610ae990613ce7565b6001600160a01b0383166000908152606c602052604090205460ff16158015610e0657506001600160a01b0384166000908152606c602052604090205460ff16155b610e455760405162461bcd60e51b815260206004820152601060248201526f3bb0b63632ba1034b990333937bd32b760811b6044820152606401610ae9565b6001600160a01b0384166000908152606d6020526040902054610e6785611872565b610e719190613cd4565b821115610eb75760405162461bcd60e51b8152602060048201526014602482015273496e73756666696369656e742042616c616e636560601b6044820152606401610ae9565b606e5460405163b9209e3360e01b81526001600160a01b0385811660048301526101009092049091169063b9209e3390602401602060405180830381865afa158015610f07573d6000803e3d6000fd5b505050506040513d601f19601f82011682018060405250810190610f2b9190613d11565b8015610fa75750606f546040516372331c7360e11b81526001600160a01b039091169063e46638e690610f6690879087908790600401613d2e565b602060405180830381865afa158015610f83573d6000803e3d6000fd5b505050506040513d601f19601f82011682018060405250810190610fa79190613d11565b15611061576001600160a01b038416600090815260676020908152604080832033808552925290912054610fe7918691610fe2908690613cd4565b612e6f565b610ff2848484613017565b606f546040516322ebca6d60e21b81526001600160a01b0390911690638baf29b49061102690879087908790600401613d2e565b600060405180830381600087803b15801561104057600080fd5b505af1158015611054573d6000803e3d6000fd5b50505050600190506110a1565b60405162461bcd60e51b81526020600482015260156024820152745472616e73666572206e6f7420706f737369626c6560581b6044820152606401610ae9565b9392505050565b6110b133610d91565b6110cd5760405162461bcd60e51b8152600401610ae990613c2e565b60a6805460ff1916911515919091179055565b6110e933610d91565b6111055760405162461bcd60e51b8152600401610ae990613c2e565b60a65460ff166111505760405162461bcd60e51b815260206004820152601660248201527550726f7065727479206973206e6f742061637469766560501b6044820152606401610ae9565b600081116111a05760405162461bcd60e51b815260206004820152601d60248201527f416d6f756e74206d7573742062652067726561746572207468616e20300000006044820152606401610ae9565b60a16004015481306001600160a01b03166318160ddd6040518163ffffffff1660e01b8152600401602060405180830381865afa1580156111e5573d6000803e3d6000fd5b505050506040513d601f19601f820116820180604052508101906112099190613d52565b6112139190613c92565b11156112585760405162461bcd60e51b81526020600482015260146024820152734578636565647320746f74616c20746f6b656e7360601b6044820152606401610ae9565b6112628282611492565b6001600160a01b038216600090815260a860205260408120805483929061128a908490613c92565b909155505060a55460a4546001600160a01b038416917f630b54f21d1c5ae41c4633ad96e8c15ce15665365eded6a38476ffa71c8ace6c918491906112d0908390613d6b565b6112da9190613d82565b60408051928352602083019190915201610d85565b3360008181526067602090815260408083206001600160a01b03871684529091528120549091610aba918590610fe2908690613c92565b61132e613185565b606b8054610100600160a81b0319166101006001600160a01b03848116820292909217928390556040519204169061136890606a90613da4565b6040518091039020606960405161137f9190613da4565b60408051918290038220606b5483830183526005845264342e312e3360d81b6020850152915190927f6a1105ac8148a3c319adbc369f9072573e8a11d3a3d195e067e7c40767ec54d1926113d99260ff9091169190613e1a565b60405180910390a450565b6113ed33610d91565b6114095760405162461bcd60e51b8152600401610ae990613c2e565b606e5460ff166114525760405162461bcd60e51b815260206004820152601460248201527314185d5cd8589b194e881b9bdd081c185d5cd95960621b6044820152606401610ae9565b606e805460ff191690556040513381527f5db9ee0a495bf2e6ff9c91a7834c1ba4fdd244a5e8aa4e537bd38aeae4b073aa906020015b60405180910390a1565b61149b33610d91565b6114b75760405162461bcd60e51b8152600401610ae990613c2e565b606e5460405163b9209e3360e01b81526001600160a01b0384811660048301526101009092049091169063b9209e3390602401602060405180830381865afa158015611507573d6000803e3d6000fd5b505050506040513d601f19601f8201168201806040525081019061152b9190613d11565b6115775760405162461bcd60e51b815260206004820152601960248201527f4964656e74697479206973206e6f742076657269666965642e000000000000006044820152606401610ae9565b606f546040516372331c7360e11b81526001600160a01b039091169063e46638e6906115ac9060009086908690600401613d2e565b602060405180830381865afa1580156115c9573d6000803e3d6000fd5b505050506040513d601f19601f820116820180604052508101906115ed9190613d11565b6116395760405162461bcd60e51b815260206004820152601760248201527f436f6d706c69616e6365206e6f7420666f6c6c6f7765640000000000000000006044820152606401610ae9565b61164382826131df565b606f54604051635f8dead360e01b81526001600160a01b0384811660048301526024820184905290911690635f8dead390604401600060405180830381600087803b15801561169157600080fd5b505af11580156116a5573d6000803e3d6000fd5b505050505050565b60005b8581101561173a576117278787838181106116cd576116cd613ca5565b90506020020160208101906116e2919061367f565b8686848181106116f4576116f4613ca5565b9050602002016020810190611709919061367f565b85858581811061171b5761171b613ca5565b905060200201356120c1565b508061173281613cbb565b9150506116b0565b50505050505050565b60005b83811015610c615761179685858381811061176357611763613ca5565b9050602002016020810190611778919061367f565b84848481811061178a5761178a613ca5565b90506020020135610c68565b806117a081613cbb565b915050611746565b60005b83811015610c61576117fb8585838181106117c8576117c8613ca5565b90506020020160208101906117dd919061367f565b8484848181106117ef576117ef613ca5565b90506020020135611f16565b8061180581613cbb565b9150506117ab565b60005b83811015610c615761186085858381811061182d5761182d613ca5565b9050602002016020810190611842919061367f565b84848481811061185457611854613ca5565b90506020020135611492565b8061186a81613cbb565b915050611810565b6001600160a01b031660009081526066602052604090205490565b611895613185565b61189f60006132c7565b565b6118aa33610d91565b6118c65760405162461bcd60e51b8152600401610ae990613c2e565b606e5460ff16156118e95760405162461bcd60e51b8152600401610ae990613ce7565b606e805460ff191660011790556040513381527f62e78cea01bee320cd4e420270b5ea74000d11b0c9f74754ebdbfc544b05a25890602001611488565b61192e613185565b6001600160a01b0381166119545760405162461bcd60e51b8152600401610ae990613e3e565b61195f606582613319565b6040516001600160a01b038216907ff68e73cec97f2d70aa641fb26e87a4383686e2efacb648f2165aeb02ac562ec590600090a250565b60a180546119a390613bf4565b1590506119e85760405162461bcd60e51b8152602060048201526013602482015272105b1c9958591e481a5b9a5d1a585b1a5e9959606a1b6044820152606401610ae9565b8051819060a19081906119fb9082613ebb565b5060208201516001820190611a109082613ebb565b5060408201516002820190611a259082613ebb565b50606082015160038201556080820151600482015560a082015160058201805460ff191691151591909117905560c08201516006820190611a669082613ebb565b50508151604051611a779250613f7b565b60408051918290038220606084015160808501519084526020840152917f8efe95fc152bb2f1266b84d96cd58606e7d776a34bcaa87d400baa6143216370910160405180910390a250565b60005b83811015610c6157611b15858583818110611ae257611ae2613ca5565b9050602002016020810190611af7919061367f565b848484818110611b0957611b09613ca5565b90506020020135612326565b5080611b2081613cbb565b915050611ac5565b6000611b3333610d91565b611b4f5760405162461bcd60e51b8152600401610ae990613c2e565b611b5884611872565b600003611b9e5760405162461bcd60e51b81526020600482015260146024820152733737903a37b5b2b739903a37903932b1b7bb32b960611b6044820152606401610ae9565b604080516001600160a01b038516602082015283916000910160408051808303601f1901815290829052805160209091012063d202158d60e01b8252600482018190526001602483015291506001600160a01b0383169063d202158d90604401602060405180830381865afa158015611c1b573d6000803e3d6000fd5b505050506040513d601f19601f82011682018060405250810190611c3f9190613d11565b15611e57576000611c4f87611872565b6001600160a01b038881166000818152606d60205260409081902054606e549151637e42683b60e01b8152600481019390935293945061010090049091169063454a03e090899087908490637e42683b90602401602060405180830381865afa158015611cc0573d6000803e3d6000fd5b505050506040513d601f19601f82011682018060405250810190611ce49190613f97565b6040516001600160e01b031960e086901b1681526001600160a01b03938416600482015292909116602483015261ffff166044820152606401600060405180830381600087803b158015611d3757600080fd5b505af1158015611d4b573d6000803e3d6000fd5b50505050611d5a8888846120c1565b508015611d6b57611d6b8782610ac4565b6001600160a01b0388166000908152606c602052604090205460ff161515600103611d9b57611d9b876001612755565b606e5460405163a8d29d1d60e01b81526001600160a01b038a811660048301526101009092049091169063a8d29d1d90602401600060405180830381600087803b158015611de857600080fd5b505af1158015611dfc573d6000803e3d6000fd5b50505050856001600160a01b0316876001600160a01b0316896001600160a01b03167ff0c9129a94f30f1caaceb63e44b9811d0a3edf1d6c23757f346093af5553fed060405160405180910390a460019450505050506110a1565b60405162461bcd60e51b81526020600482015260156024820152745265636f76657279206e6f7420706f737369626c6560581b6044820152606401610ae9565b6060606a8054610a2a90613bf4565b611eae613185565b6001600160a01b038116611ed45760405162461bcd60e51b8152600401610ae990613e3e565b611edf606582613395565b6040516001600160a01b038216907fed9c8ad8d5a0a66898ea49d2956929c93ae2e8bd50281b2ed897c5d1a6737e0b90600090a250565b611f1f33610d91565b611f3b5760405162461bcd60e51b8152600401610ae990613c2e565b80611f4583611872565b1015611f935760405162461bcd60e51b815260206004820152601d60248201527f63616e6e6f74206275726e206d6f7265207468616e2062616c616e63650000006044820152606401610ae9565b6001600160a01b0382166000908152606d6020526040812054611fb584611872565b611fbf9190613cd4565b905080821115612055576000611fd58284613cd4565b6001600160a01b0385166000908152606d6020526040902054909150611ffc908290613cd4565b6001600160a01b0385166000818152606d6020526040908190209290925590517f9bed35cb62ad0dba04f9d5bfee4b5bc91443e77da8a65c4c84834c51bb08b0d69061204b9084815260200190565b60405180910390a2505b61205f8383613417565b606f5460405163469753b960e11b81526001600160a01b0385811660048301526024820185905290911690638d2ea77290604401600060405180830381600087803b1580156120ad57600080fd5b505af115801561173a573d6000803e3d6000fd5b60006120cc33610d91565b6120e85760405162461bcd60e51b8152600401610ae990613c2e565b816120f285611872565b10156121395760405162461bcd60e51b815260206004820152601660248201527573656e6465722062616c616e636520746f6f206c6f7760501b6044820152606401610ae9565b6001600160a01b0384166000908152606d602052604081205461215b86611872565b6121659190613cd4565b9050808311156121fb57600061217b8285613cd4565b6001600160a01b0387166000908152606d60205260409020549091506121a2908290613cd4565b6001600160a01b0387166000818152606d6020526040908190209290925590517f9bed35cb62ad0dba04f9d5bfee4b5bc91443e77da8a65c4c84834c51bb08b0d6906121f19084815260200190565b60405180910390a2505b606e5460405163b9209e3360e01b81526001600160a01b0386811660048301526101009092049091169063b9209e3390602401602060405180830381865afa15801561224b573d6000803e3d6000fd5b505050506040513d601f19601f8201168201806040525081019061226f9190613d11565b156110615761227f858585613017565b606f546040516322ebca6d60e21b81526001600160a01b0390911690638baf29b4906122b390889088908890600401613d2e565b600060405180830381600087803b1580156122cd57600080fd5b505af11580156122e1573d6000803e3d6000fd5b5050505060019150506110a1565b3360008181526067602090815260408083206001600160a01b03871684529091528120549091610aba918590610fe2908690613cd4565b606e5460009060ff161561234c5760405162461bcd60e51b8152600401610ae990613ce7565b6001600160a01b0383166000908152606c602052604090205460ff161580156123855750336000908152606c602052604090205460ff16155b6123c45760405162461bcd60e51b815260206004820152601060248201526f3bb0b63632ba1034b990333937bd32b760811b6044820152606401610ae9565b336000818152606d6020526040902054906123de90611872565b6123e89190613cd4565b82111561242e5760405162461bcd60e51b8152602060048201526014602482015273496e73756666696369656e742042616c616e636560601b6044820152606401610ae9565b606e5460405163b9209e3360e01b81526001600160a01b0385811660048301526101009092049091169063b9209e3390602401602060405180830381865afa15801561247e573d6000803e3d6000fd5b505050506040513d601f19601f820116820180604052508101906124a29190613d11565b801561251e5750606f546040516372331c7360e11b81526001600160a01b039091169063e46638e6906124dd90339087908790600401613d2e565b602060405180830381865afa1580156124fa573d6000803e3d6000fd5b505050506040513d601f19601f8201168201806040525081019061251e9190613d11565b156110615761252e338484613017565b606f546040516322ebca6d60e21b81526001600160a01b0390911690638baf29b49061256290339087908790600401613d2e565b600060405180830381600087803b15801561257c57600080fd5b505af1158015612590573d6000803e3d6000fd5b5050505060019050610abe565b6125a5613185565b6040516020016125c090602080825260009082015260400190565b6040516020818303038152906040528051906020012082826040516020016125e9929190613fbb565b604051602081830303815290604052805190602001200361261c5760405162461bcd60e51b8152600401610ae990613fea565b606a612629828483614021565b50606b546040516101009091046001600160a01b03169061264c90606a90613da4565b604051809103902060696040516126639190613da4565b60408051918290038220606b5483830183526005845264342e312e3360d81b6020850152915190927f6a1105ac8148a3c319adbc369f9072573e8a11d3a3d195e067e7c40767ec54d1926126bd9260ff9091169190613e1a565b60405180910390a45050565b6126d1613185565b6040516020016126ec90602080825260009082015260400190565b604051602081830303815290604052805190602001208282604051602001612715929190613fbb565b60405160208183030381529060405280519060200120036127485760405162461bcd60e51b8152600401610ae990613fea565b6069612629828483614021565b61275e33610d91565b61277a5760405162461bcd60e51b8152600401610ae990613c2e565b6001600160a01b0382166000818152606c6020526040808220805460ff19168515159081179091559051339391927f7fa523c84ab8d7fc5b72f08b9e46dbbf10c39e119a075b3e317002d14bc9f43691a45050565b6127d7613185565b606e8054610100600160a81b0319166101006001600160a01b038416908102919091179091556040517fd2be862d755bca7e0d39772b2cab3a5578da9c285f69199f4c063c2294a7f36c90600090a250565b6000306001600160a01b03166318160ddd6040518163ffffffff1660e01b8152600401602060405180830381865afa158015612869573d6000803e3d6000fd5b505050506040513d601f19601f8201168201806040525081019061288d9190613d52565b60a55461289a9190613cd4565b905090565b6128a7613185565b6001600160a01b03811661290c5760405162461bcd60e51b815260206004820152602660248201527f4f776e61626c653a206e6577206f776e657220697320746865207a65726f206160448201526564647265737360d01b6064820152608401610ae9565b612915816132c7565b50565b612920613185565b606f546001600160a01b03161561298f57606f5460405163040db3b560e41b81523060048201526001600160a01b03909116906340db3b5090602401600060405180830381600087803b15801561297657600080fd5b505af115801561298a573d6000803e3d6000fd5b505050505b606f80546001600160a01b0319166001600160a01b038316908117909155604051631ffad50160e11b8152306004820152633ff5aa0290602401600060405180830381600087803b1580156129e357600080fd5b505af11580156129f7573d6000803e3d6000fd5b50506040516001600160a01b03841692507f7f3a888862559648ec01d97deb7b5012bff86dc91e654a1de397170db40e35b69150600090a250565b600054610100900460ff1615808015612a525750600054600160ff909116105b80612a6c5750303b158015612a6c575060005460ff166001145b612acf5760405162461bcd60e51b815260206004820152602e60248201527f496e697469616c697a61626c653a20636f6e747261637420697320616c72656160448201526d191e481a5b9a5d1a585b1a5e995960921b6064820152608401610ae9565b6000805460ff191660011790558015612af2576000805461ff0019166101001790555b6000612b066033546001600160a01b031690565b6001600160a01b031614612b525760405162461bcd60e51b8152602060048201526013602482015272185b1c9958591e481a5b9a5d1a585b1a5e9959606a1b6044820152606401610ae9565b6001600160a01b03871615801590612b7257506001600160a01b03861615155b612b8e5760405162461bcd60e51b8152600401610ae990613e3e565b604051602001612ba990602080825260009082015260400190565b6040516020818303038152906040528051906020012085604051602001612bd09190613626565b6040516020818303038152906040528051906020012014158015612c4a5750604051602001612c0a90602080825260009082015260400190565b6040516020818303038152906040528051906020012084604051602001612c319190613626565b6040516020818303038152906040528051906020012014155b612c665760405162461bcd60e51b8152600401610ae990613fea565b60128360ff161115612cba5760405162461bcd60e51b815260206004820152601960248201527f646563696d616c73206265747765656e203020616e64203138000000000000006044820152606401610ae9565b612cc2613503565b6069612cce8682613ebb565b50606a612cdb8582613ebb565b50606b80546001600160a01b038416610100026001600160a81b031990911660ff861617179055606e805460ff19166001179055612d18876127cf565b612d2186612918565b606b546040516101009091046001600160a01b031690612d4390606a90613da4565b60405180910390206069604051612d5a9190613da4565b60408051918290038220606b5483830183526005845264342e312e3360d81b6020850152915190927f6a1105ac8148a3c319adbc369f9072573e8a11d3a3d195e067e7c40767ec54d192612db49260ff9091169190613e1a565b60405180910390a4801561173a576000805461ff0019169055604051600181527f7f26b83ff96e1f2b6a682f133852f6798a09c465da95921460cefb38474024989060200160405180910390a150505050505050565b60005b83811015610c6157612e5d858583818110612e2a57612e2a613ca5565b9050602002016020810190612e3f919061367f565b848484818110612e5157612e51613ca5565b90506020020135610ac4565b80612e6781613cbb565b915050612e0d565b6001600160a01b038316612ed15760405162461bcd60e51b8152602060048201526024808201527f45524332303a20617070726f76652066726f6d20746865207a65726f206164646044820152637265737360e01b6064820152608401610ae9565b6001600160a01b038216612f325760405162461bcd60e51b815260206004820152602260248201527f45524332303a20617070726f766520746f20746865207a65726f206164647265604482015261737360f01b6064820152608401610ae9565b6001600160a01b0383811660008181526067602090815260408083209487168084529482529182902085905590518481527f8c5be1e5ebec7d5bd14f71427d1e84f3dd0314c0f7b2291e5b200ac8c7c3b92591015b60405180910390a3505050565b60006001600160a01b038216612ff75760405162461bcd60e51b815260206004820152602260248201527f526f6c65733a206163636f756e7420697320746865207a65726f206164647265604482015261737360f01b6064820152608401610ae9565b506001600160a01b03166000908152602091909152604090205460ff1690565b6001600160a01b03831661307b5760405162461bcd60e51b815260206004820152602560248201527f45524332303a207472616e736665722066726f6d20746865207a65726f206164604482015264647265737360d81b6064820152608401610ae9565b6001600160a01b0382166130dd5760405162461bcd60e51b815260206004820152602360248201527f45524332303a207472616e7366657220746f20746865207a65726f206164647260448201526265737360e81b6064820152608401610ae9565b6001600160a01b038316600090815260666020526040902054613101908290613cd4565b6001600160a01b038085166000908152606660205260408082209390935590841681522054613131908290613c92565b6001600160a01b0380841660008181526066602052604090819020939093559151908516907fddf252ad1be2c89b69c2b068fc378daa952ba7f163c4a11628f55a4df523b3ef90612f879085815260200190565b6033546001600160a01b0316331461189f5760405162461bcd60e51b815260206004820181905260248201527f4f776e61626c653a2063616c6c6572206973206e6f7420746865206f776e65726044820152606401610ae9565b6001600160a01b0382166132355760405162461bcd60e51b815260206004820152601f60248201527f45524332303a206d696e7420746f20746865207a65726f2061646472657373006044820152606401610ae9565b806068546132439190613c92565b6068556001600160a01b03821660009081526066602052604090205461326a908290613c92565b6001600160a01b0383166000818152606660205260408082209390935591519091907fddf252ad1be2c89b69c2b068fc378daa952ba7f163c4a11628f55a4df523b3ef906132bb9085815260200190565b60405180910390a35050565b603380546001600160a01b038381166001600160a01b0319831681179093556040519116919082907f8be0079c531659141344cd1fd0a4f28419497f9722a3daafe3b4186f6b6457e090600090a35050565b6133238282612f94565b156133705760405162461bcd60e51b815260206004820152601f60248201527f526f6c65733a206163636f756e7420616c72656164792068617320726f6c65006044820152606401610ae9565b6001600160a01b0316600090815260209190915260409020805460ff19166001179055565b61339f8282612f94565b6133f55760405162461bcd60e51b815260206004820152602160248201527f526f6c65733a206163636f756e7420646f6573206e6f74206861766520726f6c6044820152606560f81b6064820152608401610ae9565b6001600160a01b0316600090815260209190915260409020805460ff19169055565b6001600160a01b0382166134775760405162461bcd60e51b815260206004820152602160248201527f45524332303a206275726e2066726f6d20746865207a65726f206164647265736044820152607360f81b6064820152608401610ae9565b6001600160a01b03821660009081526066602052604090205461349b908290613cd4565b6001600160a01b0383166000908152606660205260409020556068546134c2908290613cd4565b6068556040518181526000906001600160a01b038416907fddf252ad1be2c89b69c2b068fc378daa952ba7f163c4a11628f55a4df523b3ef906020016132bb565b600054610100900460ff1661352a5760405162461bcd60e51b8152600401610ae9906140e1565b61189f613537565b505050565b600054610100900460ff1661355e5760405162461bcd60e51b8152600401610ae9906140e1565b61189f336132c7565b60005b8381101561358257818101518382015260200161356a565b50506000910152565b600081518084526135a3816020860160208601613567565b601f01601f19169290920160200192915050565b60e0815260006135ca60e083018a61358b565b82810360208401526135dc818a61358b565b905082810360408401526135f0818961358b565b905086606084015285608084015284151560a084015282810360c0840152613618818561358b565b9a9950505050505050505050565b6020815260006110a1602083018461358b565b80356001600160a01b038116811461365057600080fd5b919050565b6000806040838503121561366857600080fd5b61367183613639565b946020939093013593505050565b60006020828403121561369157600080fd5b6110a182613639565b60008083601f8401126136ac57600080fd5b50813567ffffffffffffffff8111156136c457600080fd5b6020830191508360208260051b85010111156136df57600080fd5b9250929050565b600080600080604085870312156136fc57600080fd5b843567ffffffffffffffff8082111561371457600080fd5b6137208883890161369a565b9096509450602087013591508082111561373957600080fd5b506137468782880161369a565b95989497509550505050565b60008060006060848603121561376757600080fd5b61377084613639565b925061377e60208501613639565b9150604084013590509250925092565b801515811461291557600080fd5b80356136508161378e565b6000602082840312156137b957600080fd5b81356110a18161378e565b600080600080600080606087890312156137dd57600080fd5b863567ffffffffffffffff808211156137f557600080fd5b6138018a838b0161369a565b9098509650602089013591508082111561381a57600080fd5b6138268a838b0161369a565b9096509450604089013591508082111561383f57600080fd5b5061384c89828a0161369a565b979a9699509497509295939492505050565b634e487b7160e01b600052604160045260246000fd5b60405160e0810167ffffffffffffffff811182821017156138975761389761385e565b60405290565b600082601f8301126138ae57600080fd5b813567ffffffffffffffff808211156138c9576138c961385e565b604051601f8301601f19908116603f011681019082821181831017156138f1576138f161385e565b8160405283815286602085880101111561390a57600080fd5b836020870160208301376000602085830101528094505050505092915050565b60006020828403121561393c57600080fd5b813567ffffffffffffffff8082111561395457600080fd5b9083019060e0828603121561396857600080fd5b613970613874565b82358281111561397f57600080fd5b61398b8782860161389d565b8252506020830135828111156139a057600080fd5b6139ac8782860161389d565b6020830152506040830135828111156139c457600080fd5b6139d08782860161389d565b60408301525060608301356060820152608083013560808201526139f660a0840161379c565b60a082015260c083013582811115613a0d57600080fd5b613a198782860161389d565b60c08301525095945050505050565b600080600060608486031215613a3d57600080fd5b613a4684613639565b9250613a5460208501613639565b9150613a6260408501613639565b90509250925092565b60008060208385031215613a7e57600080fd5b823567ffffffffffffffff80821115613a9657600080fd5b818501915085601f830112613aaa57600080fd5b813581811115613ab957600080fd5b866020828501011115613acb57600080fd5b60209290920196919550909350505050565b60008060408385031215613af057600080fd5b613af983613639565b91506020830135613b098161378e565b809150509250929050565b60008060408385031215613b2757600080fd5b613b3083613639565b9150613b3e60208401613639565b90509250929050565b60008060008060008060c08789031215613b6057600080fd5b613b6987613639565b9550613b7760208801613639565b9450604087013567ffffffffffffffff80821115613b9457600080fd5b613ba08a838b0161389d565b95506060890135915080821115613bb657600080fd5b50613bc389828a0161389d565b935050608087013560ff81168114613bda57600080fd5b9150613be860a08801613639565b90509295509295509295565b600181811c90821680613c0857607f821691505b602082108103613c2857634e487b7160e01b600052602260045260246000fd5b50919050565b6020808252602e908201527f4167656e74526f6c653a2063616c6c657220646f6573206e6f7420686176652060408201526d746865204167656e7420726f6c6560901b606082015260800190565b634e487b7160e01b600052601160045260246000fd5b80820180821115610abe57610abe613c7c565b634e487b7160e01b600052603260045260246000fd5b600060018201613ccd57613ccd613c7c565b5060010190565b81810381811115610abe57610abe613c7c565b60208082526010908201526f14185d5cd8589b194e881c185d5cd95960821b604082015260600190565b600060208284031215613d2357600080fd5b81516110a18161378e565b6001600160a01b039384168152919092166020820152604081019190915260600190565b600060208284031215613d6457600080fd5b5051919050565b8082028115828204841417610abe57610abe613c7c565b600082613d9f57634e487b7160e01b600052601260045260246000fd5b500490565b6000808354613db281613bf4565b60018281168015613dca5760018114613ddf57613e0e565b60ff1984168752821515830287019450613e0e565b8760005260208060002060005b85811015613e055781548a820152908401908201613dec565b50505082870194505b50929695505050505050565b60ff83168152604060208201526000613e36604083018461358b565b949350505050565b6020808252601f908201527f696e76616c696420617267756d656e74202d207a65726f206164647265737300604082015260600190565b601f82111561353257600081815260208120601f850160051c81016020861015613e9c5750805b601f850160051c820191505b818110156116a557828155600101613ea8565b815167ffffffffffffffff811115613ed557613ed561385e565b613ee981613ee38454613bf4565b84613e75565b602080601f831160018114613f1e5760008415613f065750858301515b600019600386901b1c1916600185901b1785556116a5565b600085815260208120601f198616915b82811015613f4d57888601518255948401946001909101908401613f2e565b5085821015613f6b5787850151600019600388901b60f8161c191681555b5050505050600190811b01905550565b60008251613f8d818460208701613567565b9190910192915050565b600060208284031215613fa957600080fd5b815161ffff811681146110a157600080fd5b60208152816020820152818360408301376000818301604090810191909152601f909201601f19160101919050565b6020808252601f908201527f696e76616c696420617267756d656e74202d20656d70747920737472696e6700604082015260600190565b67ffffffffffffffff8311156140395761403961385e565b61404d836140478354613bf4565b83613e75565b6000601f84116001811461408157600085156140695750838201355b600019600387901b1c1916600186901b178355610c61565b600083815260209020601f19861690835b828110156140b25786850135825560209485019460019092019101614092565b50868210156140cf5760001960f88860031b161c19848701351681555b505060018560011b0183555050505050565b6020808252602b908201527f496e697469616c697a61626c653a20636f6e7472616374206973206e6f74206960408201526a6e697469616c697a696e6760a81b60608201526080019056fea2646970667358221220491266683454bb34a55981ba20b66955862e5104af2ec6a0fa26d54e2e4dbf4264736f6c63430008110033a264697066735822122040f600e8ddf7096f6417d2a9bec3cbe9acbc4f62a3682878966293bf7bd036ec64736f6c63430008110033",
  "linkReferences": {},
  "deployedLinkReferences": {}
}